:1000000000880220C1190000731A00006F1A000056
:10001000711A0000711A0000711A0000751A0000B0
:10002000000000000000000000000000711A000045
:10003000711A000000000000711A0000711A00001F
:10004000711A0000711A0000711A0000711A000084
:10005000711A0000711A0000711A0000711A000074
:10006000711A0000711A0000711A0000711A000064
:10007000711A0000711A0000711A0000711A000054
:10008000711A0000711A0000711A0000711A000044
:10009000711A0000711A0000711A0000711A000034
:1000A000711A0000711A0000711A0000711A000024
:1000B000711A0000711A0000711A0000711A000014
:0C00C000711A0000711A0000711A000093
:1000CC002DE9F84F7D280746984615460446A8BFEB
:1000DC007D2717F1280FD8BF6FF0270701F072FCAE
:1000EC0081463448C078012856D13EB2B6EB254F34
:1000FC003EDD324A4FF0300BD2E90330D2E901C178
:10010C00127800FB063000FB061000FB06C080FBDB
:10011C000B0101F01FFB2B49824629482A4A006833
:10012C000968127801FB060080FB0B0101F012FB41
:10013C0026495044421800204BF21B71D31701F092
:10014C00E9FB01F02FFA28B2A0F12801A1421BDA39
:10015C00C0F17D00A04224DD7819174B00950138C1
:10016C0001B2781B013002B2404600F095FF13E05B
:10017C004FF480002C1401F015FA06FA85F0844235
:10018C00B8BF441E21B202E07819013801B20A4A04
:10019C0040462B4600F0EEFE4846BDE8F84F01F015
:1001AC0025BC781B044A2B46013001B2404600F0B6
:1001BC004FFFF1E7A4210020CD00000040210020DA
:1001CC00B41A0000B81A0000B31A0000006CDC026C
:1001DC002E480178002956D1B0B52D490124047060
:1001EC00D1E90121002AC0E9012118BF0122132104
:1001FC00002342702748284A283000F0E1FB4FF4D6
:10020C008260032101F0ECFB2448254D016841F488
:10021C008011016048F20A002860132001F013FCE1
:10022C002048214A2021002300F0CAFB1F4840F639
:10023C00FF71046084601E480460D5F8D0008843C8
:10024C000821C5F8D000D5F8C40061F30F30C5F80B
:10025C00C40001F0F0FB4FF4FA71164C0023B1FB13
:10026C00F0F21549204600F03BFF01F063FA2046FE
:10027C0000F0F6FCE86C102140F00040E8640F48F8
:10028C000160BDE8B0400020704700BFA4210020F1
:10029C00A01A000040210020CD02000044000040C4
:1002AC005810004084230020051A000058200040FC
:1002BC006020024008230020151000000058004068
:1002CC002DE9F041344EB46827043461B4611CD577
:1002DC00324D4FF400303061284600F0F3FC2846D4
:1002EC00002100224FF0000801F0A6FA2C482D4DF9
:1002FC00F065A86818B18047C5F8088005E00820AB
:10030C0001F020F9012001F0E9F814F00A0519D0E8
:10031C00306C0821002F20F001003064F06D20F0CB
:10032C000040F065D6F8D80061F30F30C6F8D8005D
:10033C0005D43068000402D5012001F0CFF801F09B
:10034C00F9F9756120070DD501F03CFB316E21F0F8
:10035C0000413166316E41F00041316601F046FBDF
:10036C00082070610F4D296989B12046884770B10A
:10037C000120F066002028610B48016841F004015F
:10038C000160102001F0DEF8012001F0A7F8E00672
:10039C0058BFBDE8F081FEE7441000400823002060
:1003AC0011000380A42100202C0000402DE9FE4305
:1003BC0001F008FB2C490A78012A03D1BDE8FE4361
:1003CC0001F014BB4FF0010881F8008001F00EFB26
:1003DC000020002600F0D8FB244D6C46286840F421
:1003EC0080102860204601F0A9FA214F224A1521DD
:1003FC002346F86801901F4800F0E2FA204A1F4893
:10040C004FF0000C13781F4A007896461E4A05EBF5
:10041C00800101F54351914698421ED83A6852F832
:10042C002050002D16D4AA0708FA00F20AD416435D
:10043C00C2B2FF2A0AD07446724405F0010482F855
:10044C00BC4003E06C0748BF4CEA020C4A4605EA84
:10045C0009020A6004310130DEE70C480660CEF870
:10046C0000C0BDE8FE8300BF1C22002040000040FD
:10047C00781A00006823002081140000B11A0000D3
:10048C00B21A000044300240F8FFFF7F00350240F2
:10049C002DE9F84301F096FA804601F0B9FA81464D
:1004AC00800728D401F09EF950B322490868D1F88E
:1004BC00C06050B3DFF880C001F584714FF0FF3796
:1004CC000022052A14D020FA02F4E4070DD01CF8FF
:1004DC0002400D6806FA04F3EB1A13F5800F28BFDF
:1004EC000023E3409F4228BF1F4604310132E8E756
:1004FC00B7F5FA7F0BD85FEA497058BF01F064F981
:10050C004046BDE8F84301F071BA6FF480070B4C1C
:10051C00256800BF00BFB81900F0BAF800BF00BFD3
:10052C002068C007ECD1E807EAD0206840F005004D
:10053C002060E5E744200240AC1A000010E000E027
:10054C008B4208BF824207D9009A002A01D0106062
:10055C005160002100207047002B08BF002A10D1E9
:10056C00009A002A01D01060516002000B0000219B
:10057C000020002B08BF002A1CBFC943C04301F058
:10058C0066BAF0B51C4615460B4602460020002103
:10059C00B4FA84F6202E04BFB5FA85F62036B3FAE9
:1005AC0083F7202F04BFB2FA82F72037F61BB6F17F
:1005BC00200727BF05FA07F400257F42B4403EBF51
:1005CC0025FA07F73C43B540A34208BFAA4201D322
:1005DC00521BA341404149416D0845EAC47564086A
:1005EC00761EF1D5059F002F01D03A607B60F0BDDF
:1005FC0070B501040BD4C1050FD480030BD51F4873
:10060C00C16E0A2933D121498164012070BD40F2A9
:10061C00022000F0AFFF002070BD1849D1F8B401E2
:10062C0000281AD4164A174C174D13681060E61A96
:10063C00D8BF5E19952E10DC241A98BF4419C01A25
:10064C0048BF4042952C08DC952806D84FF400335F
:10065C0000200B6010604B6070BD00200122C1F8BF
:10066C00AC01C1F8AC214FF480724A6070BD0A2114
:10067C00C1664FF400314160CDE700BF541000401B
:10068C001822002060E31600A01CE9FF80841E8065
:10069C002DE9F04F87B082462048214D0DF1080B13
:1006AC00016821F0010101601E485946D5F800800F
:1006BC00D5F80091019090E8DC0040F24440DCC198
:1006CC00042101F08DF9202001F0BBF9164EAAF19E
:1006DC009600706200F038F904460120F0607065F5
:1006EC003068202001F0ADF940F24440232101F0A4
:1006FC0077F9D5F8FC000128FBD1019F9BE84F004E
:10070C004FC7C5F80091C5F8008000F059FC0420D3
:10071C0000F018FF204607B0BDE8F08F10E000E0B5
:10072C00442002404C210240002000402DE9F043BF
:10073C0091B00E4621490446684600234FF000084C
:10074C00324600F0A1FF701E10F1030F02D868466C
:10075C0000F086FA01F036F9194F054601200136F2
:10076C00E9467870E068A0B91EB1484601F065F919
:10077C0078B1606800B18047284601F037F9B87845
:10078C0018B101F03FF987F8028001F01BF905461A
:10079C00E8E700207870E06820B1E0680138E0609C
:1007AC00002400E0FF24284601F020F9684601F0FF
:1007BC00E1F860B211B0BDE8F08300BF6D1A000023
:1007CC00F82100202DE9F84FFF2001F027F81E4CEE
:1007DC00206820F0040020606FF0FF0001F010F89A
:1007EC002068DFF86880A34620F008002060D8F865
:1007FC0000A000F08DFE05464FF00009BAF1000F85
:10080C0017D0BAF90E705646DAF800A0BD4203DDD7
:10081C00B6F90C70BD42F1DB4046314600F020FFCA
:10082C00B468326928463946334686F81490A04796
:10083C00E4E700F0FBFCDBF8040000F00C00CBF864
:10084C000400BDE8F88F00BF48600040A0230020E2
:10085C002DE9FE4301F0B6F8DFF85880044698F80D
:10086C00000010BB14480221D0E90057806801F049
:10087C00B7F86E46304601F061F81048104A4FF058
:10088C0001092946334601978DF8089000F098F835
:10089C000C48002101600C480321C0F8001888F8AE
:1008AC000090016841F004010160204601F09EF8BF
:1008BC00BDE8FE831D220020881A00004C23002076
:1008CC00DD13000048600040005800402DE9F04165
:1008DC00184C207808B1BDE8F081174F174818491B
:1008EC0001254FF000080022D7F8B0603D60C7F832
:1008FC00B880FD6000F0D0FF40F24440232101F0AD
:10090C006FF87D600F4F07F10C0000F0D0FF6FF413
:10091C0080003044B8607E60A7F80080257001F03C
:10092C0051F80446B86800F0E5FE2046BDE8F041F9
:10093C0001F05CB8A3210020542002408423002045
:10094C00250B0000D4210020B0B5012000F0FAFDE9
:10095C00044648BB174D00F0E5FB28B100F084FFBE
:10096C00286820F001002860E86920F00040E86168
:10097C00EFF31485A807104803D4016800208847BA
:10098C0010E0002181F31488BFF36F8F0168002001
:10099C008847022080F31488BFF36F8F85F3148887
:1009AC00BFF36F8F00F0C6FE044800218170204613
:1009BC00B0BD00BF841000404C00000FA4210020EB
:1009CC007FB568B11E460D4604465BB17068C1B276
:1009DC00FF2910D014490968A9420ED070280CD1F7
:1009EC0000241EE001208DF80C004FF0FF30029027
:1009FC000020019001AE602070600C480C4940F85A
:100A0C0025403068C4E90052A060284600F012FE70
:100A1C003179284600F0BCFE307A10B1284600F03F
:100A2C0043FD204604B070BD14220020002000209D
:100A3C0021170000F0B540F6FF7C10F8013B0024B4
:100A4C00082CFAD00646DF0716F8015B0DD1477863
:100A5C0007F00F060336122E0DD190F90220D6B2F4
:100A6C00B2F1FF3F09DD03300DE001F8015B3046C8
:100A7C0001345B08E4E7023006E0C27806F07F063A
:100A8C00043046EAC21612363F0947EA051262459F
:100A9C0008BFF0BD2A013A44D543002EE8D04A5D88
:100AAC00013E0A700131F8E7E0B5164840F66102E4
:100ABC00016862F30B010160416862F30B01416054
:100ACC00FFF786FB00F0F0FB0F48124A40F2A3132D
:100ADC00016841F00101016000201621CDE90010F0
:100AEC000A480B4900F0CCFE6FF03100022100F0F7
:100AFC00F5F9FFF75BFC00F0C9F9BDE88C4000F09C
:100B0C006CB900BF181100401400004041F1A30360
:100B1C00F60BE4FF3F74FFFFF8B5194C0125256077
:100B2C0000F050FF174FD4F8B060BC683D8000F067
:100B3C005DFF361B0025AE4207D32C440120761BEB
:100B4C00214600F0EFF80546F5E700F03BFF0646BE
:100B5C007878012804D10020214600F0E3F80546FE
:100B6C006FF48000854238BF2846204400F0C2FD57
:100B7C0000207C6038703046BDE8F84000F036BF8D
:100B8C0054200240D421002070B5054600F01AFF15
:100B9C000446284600F0A6FB06460130C1B22846A2
:100BAC0000F0FAFB300604D0204600F01FFF0020B6
:100BBC0070BD05F47F40B0F5007F12D0B0F5807F9A
:100BCC0008D00028F0D1E8B2012101FA00F009495F
:100BDC000860E9E7E8B2012101FA00F00549486034
:100BEC00E2E7E8B2012101FA00F0002180B200F046
:100BFC00DDFDD9E714000240002927D4FF2804BFEB
:100C0C004FF0FF307047F0B5114D124B8C0707D4E5
:100C1C002E1801F0010786F89C70012686401E6094
:100C2C00012686404F074CBF45F8086B10352E60E7
:100C3C00094D29401143094A002C42F8201003D5D4
:100C4C00012101FA00F018610020F0BD002070476E
:100C5C006430024010350240F8FFFF7F0031004045
:100C6C0070B5054600F0AEFE1449154A04460B78E3
:100C7C0010682BB1AA681044E860012048700BE0A2
:100C8C004E688B684968861B591A8E420AD91068BF
:100C9C00A9680844E860012028752046BDE870402A
:100CAC0000F0A4BEA9680A18181AEA600122814251
:100CBC002A75F2D2E86800F01DFDEEE7D421002081
:100CCC000421024070B5054600F07CFE044600206D
:100CDC00124E28753078012802D10120707018E06E
:100CEC00E868B168884214D10D490D687168726862
:100CFC00691A801A81420CD20020294600F012F8A1
:100D0C006FF48001884238BF0146481900F0F2FCAC
:100D1C0075602046BDE8704000F068BED42100200C
:100D2C00042102402DE9F041054614480C464FF0D1
:100D3C00FF364FF0000800F10C073F68DFB1387D3B
:100D4C000028FAD075B1F868A0420BD13969F8695E
:100D5C003A691AB1FA681144F96001E087F8148015
:100D6C00B9698847387D0028E7D0F868001BB04285
:100D7C0038BF0646E1E73046BDE8F081D4210020BB
:100D8C007FB50D4602A980EAE57000911C4682EA07
:100D9C00E37285EAE571B0EBE57083EAE37361EB2E
:100DAC00E571B2EBE47263EBE473FFF7C9FBDDE9C9
:100DBC000223089E83EAE57382EAE572B2EBE572E0
:100DCC0063EBE573C6E90023E21782EAE572514052
:100DDC005040801A914104B070BD7047B0B50446C4
:100DEC0013200021002500F077FD0320002100F0E6
:100DFC0073FD072D11D885F0070024FA00F000F0E0
:100E0C000101052000F068FD0320012100F064FDC4
:100E1C00102000F007FE0135E7E71320012100F058
:100E2C005BFD034801682820BDE8B040084700BFBF
:100E3C009400000FF0B5A9B015AC054600210022B6
:100E4C000027204600F070F80646029001206FF44F
:100E5C008002CDE900770C496B4695428DF8000075
:100E6C0038BF2A4604AD284600F03AF930464FF018
:100E7C00FF31FFF75BFC204600F07BFC284600F0BE
:100E8C0079FD29B0F0BD00BF691A0000B0B500F0C3
:100E9C00D7FA0E4C0E4D1320611CA8470320214697
:100EAC00A84705202146A8470A490420A847B9208D
:100EBC00FFF794FF084C1320A0470320A047052000
:100ECC00A04704202146BDE8B0400847000400209C
:100EDC00371A0000022004607912000070B5104E21
:100EEC000446F07800B170BD0120C1EA0445F070F1
:100EFC0000F016FA00F00CFBA04207DD06F1180317
:100F0C0000212A46BDE87040FFF7DAB8054A06F121
:100F1C00180021462B46BDE8704000F02BB800BFEE
:100F2C00A4210020CD000000F8B5114F0446164650
:100F3C000D46387818B9FFF7C9FC01203870ACB1F0
:100F4C0026B1307871682070616004E0D7E9020145
:100F5C00C4E90001C0B228B10120A06005B900208D
:100F6C00E06003E04FF6FF70A060E5602046F8BD3E
:100F7C00F82100202DE9F0411F4614460D46064687
:100F8C0000F020FD8046307D4FF47F41B581376104
:100F9C00B460F18138B90948314600F087FBF1891A
:100FAC00B5890120307528B209B200F0D7F9404656
:100FBC0000F01CFD0020BDE8F08100BFA023002044
:100FCC000E4841680A884988114302780ED0012ADC
:100FDC0007D00B4A0223936013689B07FCD50122B0
:100FEC00027021F00100074908607047002AFCD00C
:100FFC00034902224A610021017070470822002037
:10100C000C0002400400084080B500F0DBFC0E49E7
:10101C000A6D02F0F052B2F1206F10D1CA6F0823A2
:10102C0063F30F32CA67094A0A600A6D02F0F05284
:10103C00B2F1206FF9D00A6822F000420A60BDE8D4
:10104C00804000F0D3BC00BFA01000401200018013
:10105C002DE9F0411F4614460D46064600F0B2FC41
:10106C00317D8046FF20F5813761B460B08139B99C
:10107C000848314600F01AFB0120F5893075B0891B
:10108C0000B229B200F06AF9404600F0AFFC002033
:10109C00BDE8F081A02300202DE9F0411C46154647
:1010AC000E46074600F08EFC80460698FD81BE81F8
:1010BC00BC603861387D38B90848394600F0F6FA1A
:1010CC00FD89BE890120387530B229B200F046F98D
:1010DC00404600F08BFC0020BDE8F081A0230020EE
:1010EC00B0B50446B8B10D4D002B18BF1D46D5E95F
:1010FC00010320610020A161E361A2602075FFF76C
:10110C00E5FB074821460C3000F0D0FA287810B1E6
:10111C002046FFF7A5FD2046B0BD00BF941A000085
:10112C00D42100200F48FE220023016802EAD132AC
:10113C0001F07F01511A4FF0000238BF11461029FF
:10114C0088BF0123406BC0F30330032888BF012202
:10115C001A4052420828104638BF01200A2928BFDD
:10116C0010467047E81000400D4910F1020F0D4A6F
:10117C006FF0FF03C8BF01F5800100FB0211C81717
:10118C0001EB9020821512F5807FC8BF83150648AD
:10119C00B1F1804F00EA0320A8BF4FF47F407047A5
:1011AC00F2FF46003C553D0000FF01000F2806D021
:1011BC000E280AD10B48016841F0006103E0094890
:1011CC00016841F00071016070471038222808D87E
:1011DC0000F01F010122400902FA01F1024A42F813
:1011EC002010704704ED00E080E200E0B0B5054649
:1011FC0000F0E8FB0446A868E968814202D2E8687E
:10120C000130E86000F072FB40B1074D68780128AE
:10121C0004D1A87810B900F0BDFBA8702046BDE839
:10122C00B04000F0E3BB00BFF8210020F8B50E4D34
:10123C00FF264FF47F4700F0C5FB04462D6830B203
:10124C0039B255B1B5F90E70B5F90C60B942C8BFD9
:10125C000F46B042B8BF0646F0E700F07FF82046D4
:10126C00BDE8F84000F0C2BBA0230020FF2817D037
:10127C00B0B5044600F026FB0A4D286850F824103F
:10128C00204600F0D2FB686850F8241011B1002100
:10129C0040F82410A868002140F82410BDE8B040A4
:1012AC00704700BF781A0000B0B50B480B490C4DC5
:1012BC0001610120E86400F08DF900F083FB044625
:1012CC002868000403D440F2022000F053F92046B1
:1012DC00BDE8B04000F08ABBA4210020FD05000051
:1012EC004410004000F47F41B1F5007F0DD0B1F502
:1012FC00807F05D079B9094951FA80F0443008E073
:10130C00064951FA80F0143003E0044951FA80F098
:10131C001B30007870476FF00100704740210020AF
:10132C00B0B500F04FFB0A4D0446287858B9FFF7CA
:10133C008FFA08490C2000F01DFA07480168C9070C
:10134C00FCD0012028702046BDE8B04000F04EBB18
:10135C001E220020D10700003460004070B50C4EF6
:10136C000C460C4DB6F90010814205DD00F056FA22
:10137C00286840F004002860B6F90200A04206DAA2
:10138C00204600F03DFA286840F00800286070BD47
:10139C00102200204860004000F47F42B2F5007F2C
:1013AC000DD0B2F5807F05D072B9084A52FA80F0A0
:1013BC00443008E0054A52FA80F0143003E0034A46
:1013CC0052FA80F01B300170704700BF40210020A2
:1013DC00B0B50A480A4C0568A068284002D0E168FC
:1013EC0001B188472068284002D0616801B1884764
:1013FC0004480068BDE8B04000F023BB4C600040DE
:10140C00E8210020881A000070B50948094C844274
:10141C000BD0094D094EB54207D0F5E8020110F882
:10142C00012B54F822209047F5E700BF00BF70BD98
:10143C00081B0000FC1A0000101B0000201B000001
:10144C0080B50A49132000F0F0FA1320002100F0B7
:10145C0043FA022000F0E6FA1320012100F03CFAD6
:10146C00034801682320BDE88040084701040020A0
:10147C009400000F70B50A480A4D012604680461F7
:10148C006CB1B4FA84F0696880F01F0006FA00F2BF
:10149C0051F8201094430029F2D08847F0E770BD32
:1014AC0054300240781A00000F2805D10A48016810
:1014BC0041F0020101607047103822280AD8064A10
:1014CC00410900F01F0002EB8101012202FA00F039
:1014DC00C1F8F000704700BF10E000E010B5044602
:1014EC0000F070FA08490A5D013A0A55095D31B9F4
:1014FC00064A0121A140D36823EA0101D16000F022
:10150C0075FA002010BD00BFB0230020A4210020DC
:10151C0009480A490A4A006840F38A1000FB021184
:10152C00CA1701EB922201F5800192150628C8BF5B
:10153C008A0D10B2704700BF30600040778574FF91
:10154C001CB21000B0B504460948056855B1A8682E
:10155C00204205D0D5E9033220460021984718B91E
:10156C002D68F3E70020B0BD4FF0FF30B0BD00BFD9
:10157C00A82300200A494FF40072C1F8BC010120D5
:10158C00C1F8C8010867C1F8C4210022C1F8AC2118
:10159C004FF480720A60C1F8AC014A60704700BF1A
:1015AC005410004010B5044608484461C068C00699
:1015BC0048BF10BD00F006FA05490A6864F3190229
:1015CC000A60BDE8104000F011BA00BFA421002051
:1015DC00A4100040B0B50446012000FA04F500F058
:1015EC00F1F90649CA682A43CA6005490A5D013205
:1015FC000A5500F0FBF90020B0BD00BFA42100206B
:10160C00B0230020094880F308880948016841F498
:10161C007001016000BF00BF00F01CFA08B1FFF7B9
:10162C00F3FE00F081F9012000F002FA008802209C
:10163C0088ED00E070B5084A084B14689C4208D04D
:10164C0014680025CC2D03D066595E510435F9E79A
:10165C00136043F8201070BD08ED00E0002400205A
:10166C00B0B50C46054600F0ADF9D4E900120029DE
:10167C000B4608BF2B46002A5A6008BF2A46116049
:10168C00BDE8B04000F0B2B910B5044600202061AE
:10169C00A161E361A2602075034821460C30BDE8CE
:1016AC00104000F003B800BFD4210020B0B50C46A8
:1016BC00054600F087F90021216069680029616006
:1016CC0008BF29460C606C60BDE8B04000F08EB9D4
:1016DC00FEF76CFE10204FF0005100F0A6F9102020
:1016EC00012100F0F9F8012000F0B6F9102000F00B
:1016FC0049F9F8E7B0B5054D04460120A862202051
:10170C0000F09FF9024884602C60B0BD202102409B
:10171C00D4210020054806490068C0B251F82000C9
:10172C0010B1D0E901100847704700BF04ED00E08C
:10173C000020002010B5064C206B40F00500206303
:10174C000120FFF747FF4FF400402060606010BDA0
:10175C005410004008B5B2F1200327BF41FA03F042
:10176C00C9175B42D0403EBF01FA03F31843114145
:10177C0008BD704770B5054E0C46054600F022F9C1
:10178C00C6E90054BDE8704000F030B9E8210020F3
:10179C00054B044A1028034438BF831801F0F000AD
:1017AC001870704714ED00E0F0E300E0012906D852
:1017BC00044A526832F81130184322F81100FFF72E
:1017CC00FFBB00BF082200200548C068400748BF87
:1017DC00704780B500BF00BF30BF00BF00BF80BDE9
:1017EC00A42100200548816F01F00301012912BFDB
:1017FC0001200068C0F34040704700BF4810004013
:10180C0010B504460238FFF7AFFC024908600248E5
:10181C00448010BD5C6000401022002010B50446CE
:10182C000230FFF7A1FC024908600248048010BD99
:10183C00586000401022002070B514460D46064634
:10184C0000F0C0F8B561F461BDE8704000F0CEB8AE
:10185C0041F2C201884238BF014602484843FFF7B3
:10186C00E9BA00BF40420F0004490A6802EB00309D
:10187C000A68000B60F30F320A6070471C110040BD
:10188C0010B5044C04F1040CACE80F000298207065
:10189C0010BD00BF40210020EFF3108372B6C0E9E9
:1018AC00011203B17047EFF3108062B6704710B5A8
:1018BC00044600F087F80021C4E90011BDE810408F
:1018CC0000F094B8FF2804D0012101FA00F001497E
:1018DC000860704774300240FF2803D0024A01F0C0
:1018EC0001018154704700BF003102400348006879
:1018FC006FF35F20002818BF0120704704ED00E053
:10190C000349486810B1497801B10047704700BFDE
:10191C00A421002040B584B002AE0096FFF730FA47
:10192C00029A039B04B040BD0349002912BF01C9B0
:10193C000020002100F036B8BC1A000030B10121A3
:10194C00002201724FF0FF31C0E90021704710B541
:10195C0000239A4208BF10BDCC5CC4540133F8E795
:10196C00D0F80300002218B101F8012B0138FAE776
:10197C0070477047014602480C30FFF771BE00BF3C
:10198C00D4210020FF2802D0014901224254704783
:10199C00003302400249002248784A70704700BF69
:1019AC00A4210020FFF780F800F04FF80020FFF78B
:1019BC008FFEFEE7EFF3108072B6FFF7DAFFFFF74A
:1019CC0021FEFEE7EFF31080002818BF012072B64D
:1019DC0070470B46D0F80320C11D184600F038B8EC
:1019EC00014A8150704700BF0050024000B170475F
:1019FC00EFF3108062B67047014801688160704750
:101A0C004C2000400148012141707047A421002066
:101A1C000148C068704700BFA4210020EFF310807C
:101A2C0062B670470138FDD170470022FFF7E4B869
:101A3C0000F005F8FEE701207047007D704700BFFD
:101A4C007047FFF7B3BBFFF72FBDFFF7E7BF70473A
:101A5C00FFF77DBF01207047FFF7FABEFFF7C6BB4B
:0A1A6C007047FEE7FEE7FEE7FEE725
:101A7800CC2000202022002094220020FFFFFFFF1E
:101A880012000000FFFFFFFF0C0400000000000030
:101A98000000000000000000000000009D0400009D
:101AA800000000000000020202001C1A00000021D1
:041AB80014AE470021
:081ABC00000000000000000022
:101AC400002500000FB90102003F110EF080003123
:101AD40001BF0347040020043F1204FC142F654097
:101AE4001BAF37FB0D1913B3B6230020FF0F000003
:101AF400FF0E2147FFF00000410A0000DF1900003B
:101B04006D190000020000009A010000C41A0000D0
:0C1B140000200020081B00002022002000
:020000044E02AA
:10000000F0FFFFFF00000000000000008E606B8D1D
:10001000FFFFFFFFFFFFFFFFAAAAAAAAA0000000A0
:10002000FFFFFFFFFFFFFFFFFFFFFFFF00000000DC
:100030000F3F00000000000000000000000000FC76
:1000400000000000000000000000000000000000B0
:1000500000000000000000000000000000000000A0
:100060000000000000000000000000000000000090
:100070000000000000000000000000000000000080
:10074000000000000000000000000000A8BB868F31
:100750000000000000000000000000000000000099
:100760000000000000000000000000000000000089
:100770000000000000000000000000000000000079
:100780000000000000000000000000000000000069
:100790000000000000000000000000000000000059
:1007A0000000000000000000000000000000000049
:1007B0000000000000000000000000000000000039
:1007C0000000000000000000000000000000000029
:1007D0005A000000000000000000000000000000BF
:1007E0000000000000000000000000000000000009
:1007F0000000000000000000000000006460F41829
:020000044E04A8
:10000000FFFFFFFFFFFFFFFFFFFFFFFFFFFFFFFF00
:10001000FFFFFFFFFFFFFFFFFFFFFFFFFFFFFFFFF0
:10002000FFFFFFFFFFFFFFFFFFFFFFFFFFFFFFFFE0
:10003000FFFFFFFFFFFFFFFFFFFFFFFFFFFFFFFFD0
:10004000FFFFFFFFFFFFFFFFFFFFFFFFFFFFFFFFC0
:10005000FFFFFFFFFFFFFFFFFFFFFFFFFFFFFFFFB0
:10006000FFFFFFFFFFFFFFFFFFFFFFFFFFFFFFFFA0
:10007000A5A5A1F1A5A56232FFFFFFFFFFFFFFFFCE
:10008000FFFFFFFFFFFFFFFFFFFFFFFFFFFFFFFF80
:10009000FFFFFFFFFFFFFFFFFFFFFFFFFFFFFFFF70
:1000A00000000000A5A58E2FA5A59C42C3C3AF35B7
:1000B000FFFFFFFFFFFFFFFFFFFFFFFFFFFFFFFF50
:1000C000FFFFFFFFFFFFFFFFFFFFFFFFFFFFFFFF40
:1000D000AAAAAAAA0A000000B1D906B3FF0000002C
:1000E00000000000EF0CD62B000000000000000014
:1000F0000000000000000000000000000000000000
:1001000000000000000000000000000000000000EF
:1001100000000000000000000000000000000000DF
:1001200000000000000000000000000000000000CF
:04000003000019C11F
:00000001FF
