:020000040000FA
:100000003DB8F3968000000080001400885A00007C
:1000100000010000000100000000000000000000DE
:10002000FFFFFFFFFFFFFFFFFFFFFFFFFFFFFFFFE0
:10003000FFFFFFFFFFFFFFFFFFFFFFFFFFFFFFFFD0
:10004000FFFFFFFFFFFFFFFFFFFFFFFFFFFFFFFFC0
:10005000FFFFFFFFFFFFFFFFFFFFFFFFFFFFFFFFB0
:10006000FFFFFFFFFFFFFFFFFFFFFFFFFFFFFFFFA0
:10007000FFFFFFFFFFFFFFFFFFFFFFFFFFFFFFFF90
:10008000008802200F560000F7570000F7570000C5
:10009000F7570000F7570000F7570000F757000028
:1000A000F7570000F7570000F7570000614E0000B7
:1000B000F7570000F757000061340000A94E000018
:1000C000F7570000F7570000F7570000F7570000F8
:1000D000F7570000F7570000F7570000F7570000E8
:1000E000F7570000F7570000F7570000F7570000D8
:1000F000F7570000F7570000F7570000F7570000C8
:10010000F7570000F7570000F7570000F7570000B7
:10011000F7570000F7570000F7570000F7570000A7
:10012000F7570000F7570000F7570000F757000097
:10013000F7570000F7570000F7570000F757000087
:10014000F7570000F7570000F757000000000000C5
:100150002DE9F84F2DED121B0024002A00F08081BC
:1001600081460AA89FEDC28B9FEDC39B984692469D
:100170000E464FF0200C103007900AF1010010F8E5
:10018000011C002900F06681252907D0022E24BF1A
:1001900009F8011B013E01300134F0E782461AF8EC
:1001A000011BB1F12D0204BF417800F1020AB2FA3D
:1001B00082F24FEA521E30290CBF1AF8010B084692
:1001C0002A281AD158F804BB1AF8010BBBF1FF3FDB
:1001D000DCBFCBF1000B4FF0010E2E281CD1524694
:1001E00012F8010B2A281AD158F8042B9AF80100AA
:1001F0000AF1020A22EAE27520E04FF0000BA0F1BA
:100200003002092AE9D80BEB8B0200EB4200A0F187
:10021000300B1AF8010BF2E74FF0FF350EE0002526
:10022000A0F13003092B08D805EB850300EB430050
:10023000A0F1300512F8010BF2E7924630294FF099
:10024000000740F0200108BF5F466C2908BF1AF87C
:10025000010BA0F16301152900F2F5800A23DFE804
:1002600011F043001600F2004A00F200F2001600FE
:10027000F200F200F200F200F200B3001A00F20005
:10028000F2002C00F200B400F200F200B100BD4216
:100290006FF009039AE0079D58F8041B0822102309
:1002A0007746284602F0F4FEBE46074640204FF04F
:1002B000200C07F8010DE91B97E058F8047B704803
:1002C000002F08BF0746CDF818E0384605F0F1F9D1
:1002D00085420146DDF818E04FF0200CB8BF2946F2
:1002E0006A1C08BF014680E058F8040B01218DF814
:1002F00028000AAF79E008F10700CDF818E053ECC8
:10030000182B20F0070090ED000B01908DED080BED
:100310009DF8270080F080008DF8270051EC100B2D
:10032000CDE9032305910546029003F0D5F8DDF8E9
:100330002080002808BFA8460598099D08BF0546EB
:100340004046294603F0F0FD009004F0FDFB024614
:100350000B464046294600F07DF953EC192B01F07D
:10036000D3F903F0D7FE079D014604220A2328464D
:1003700002F08EFE059902AB80467D1B0DCB03F08B
:10038000ABF8002818BF013D2E2000990A2308F879
:10039000010D05EB0802404602F07AFE059902AB1A
:1003A00007460DCB03F098F810B12D2007F8010D8A
:1003B0000198DDF818E04FF0200C00F108080798CC
:1003C000C11B12E0102300E00823BD42C8BF2F4626
:1003D000079D58F8041B3A462846774602F058FE17
:1003E000BE464FF0200C0746291AABEB0100BEF1C8
:1003F000000F0CD100228318012B06DB022E24BF34
:1004000009F801CB013E013AF5E7A41A581E0A4645
:100410004AB10137013A022EFAD317F8013C013EE6
:1004200009F8013BF4E70C44BEF1000F3FF4A5AE20
:100430000128FFF6A2AE022E24BF09F801CB013E2F
:1004400001380134F4E7022E24BF09F8010B013E04
:10045000013492E6B9F1000F1CBF002089F80000BA
:100460002046BDEC121B01B0BDE8F08F00BF00BFFD
:100470000000000000000000000000000088C340F1
:10048000385A00002DE9FC47D0E900588246D8F8D8
:100490000000076C17F4F06F476436D0296CA1B3E5
:1004A000790517D5D5E91401411A504604F090FB9F
:1004B000D8F800008169C90605D401688DF80710D5
:1004C0009DF80710F6E7296801312960A97B09B971
:1004D0000121A973696C40684FF0004900F00F04D6
:1004E00004EA0100B0FA80F129FA01F1014005D0D7
:1004F0002E6C1EB12A68AB6C5046B047B4FA84F03B
:1005000029FA00F020404042A86317F4015F47D069
:10051000DAE90064504603F095F85FEA47691AD5B6
:10052000F07C90B90BE0316F69B10068B16EB26FC9
:100530008854306FB16F01310138B167306720687E
:100540008169C906EFD5F07C28B1D6E91401411ABA
:10055000504604F03DFB96F86400F0B13079022873
:100560001BD0B9F1000F02D5B179012901D0316F4B
:1005700099B90024B16E0128346786F86440B466E6
:1005800007D1B36CB26FD6F8CC6050460094B04738
:1005900003E006F17C0004F04BFD504601F088FBBF
:1005A000F80429D5D5F8F80030B3DAE900695046E7
:1005B00002F08AFC504601F051FC7079012812D1FA
:1005C000D6F8F40078B996F8E80060B1002086F813
:1005D000E800B36CD6F8EC10D6F8FC20D6F8504101
:1005E00000905046A047D6F8F80028B9D9F8000086
:1005F000816B41F400618163380522D5D8F8000091
:1006000081690907FCD4016B21F480710163297AA7
:1006100089B10020287295F84400800606D52C6C1C
:1006200024B1AB6C504620210022A047012004F0E9
:10063000DFF8D8F80000816B21F4006181636879EC
:1006400008B1BDE8FC8705F58070BDE8FC4704F003
:10065000EFBC70472DE9FC4F83F0004301E02DE92A
:10066000FC4F1F03FF0847EAD2574FEA42284FEAE0
:1006700043095FEA595906D147EA080A1CBF00211D
:100680000020BDE8FC8F57F000575FF4E06E1EF1CC
:10069000FF0EF14505D14FF00000190D0905BDE829
:1006A000FC8F002B05D55FF0000AD8F100086AEB3B
:1006B00007070C03E40844EAD0544FEA40254FEA08
:1006C0004106760D08D144EA050A19BF0021002031
:1006D00019461046BDE8FC8F44F00054764504D11D
:1006E0000020090D0905BDE8FC8F002904D55FF045
:1006F000000A6D426AEB0404B6EB090E08D5A24667
:100700003C465746AA464546D046CEF1000E4E46D8
:10071000BEF1360F5CBF4FF0000B23E0BEF1000FBF
:1007200004BF4FF0000B1AE0CEF1390ABAF12009EC
:100730002EBF08FA09FB07FA0AFB4BEA080BDEF1A9
:10074000200A07FA0AFA38BFBA4647FA0EF72DBF51
:1007500028FA0EF8AEF1200E4AFA0EF8D04415EB46
:1007600008057C4154EA050A02BF00210020BDE8CB
:10077000FC8F002C58BF4FF0000A06D55FF0010A2D
:100780005FF0000E6D426EEB0404A6F101066D00F1
:100790006441FAD515F4806E11D005F480794BEAE6
:1007A000090B15F5806554F1000428BF761C0BD2A7
:1007B00005F400795BEA090B08BF25F4006525F410
:1007C000E0656D0044EB0404B61CDEBF0021002090
:1007D000BDE8FC8F5FF4E06E1EF1FF0E76450AD394
:1007E0004FF0000013F00043FF21C900C91D0905A7
:1007F0001943BDE8FC8F270547EA1530210B41EA74
:10080000065141EACA71BDE8FC8F2DE9F84FD0E9E5
:1008100000B4994616460F46804613B10020C9F829
:1008200000008EB104F06EFF824604F0E7FC05463E
:100830009BF8070060B19BF8E80078B104F0C4FFB2
:100840006FF00800BDE8F88F6FF00900BDE8F88F81
:1008500004F0BAFF6FF00E00BDE8F88F0020012110
:10086000CBE93B76CBF8F460CBF8FC008BF8E810D2
:10087000CBF83C008BF80D008BF80B000BF580706B
:100880000021009004F0EAF8204604F059FFBAF184
:10089000000F02D19BF8050070B3404601F0DEFA6C
:1008A00004F092FF9BF8050068B90A99009804F0DB
:1008B000D5F810B101208BF80D00404602F004FB82
:1008C00000208BF8E800B9F1000F1CBFDBF8FC003A
:1008D000C9F800009BF80B0030B100208BF80B002A
:1008E0006FF00D00BDE8F88F9BF80D00002818BFD1
:1008F0006FF00C00BDE8F88F04F066FFD8E9004502
:1009000094F84400C00614D5D4F840C0A36C404607
:1009100010210022E0470CE0D4F8FC0031463A18E0
:10092000284604F005FCD4F8FC10361A0144C4F83B
:10093000FC10002EF0D1284604F094FE0028FAD0D6
:10094000284604F0F7FE94F84400800605D5256C8F
:10095000A36C404620210022A8470020B9F1000FD7
:1009600084F8E800C6D0D4F8FC00C9F800000020E4
:10097000BDE8F88F2DE9FF414F4A127882421AD91B
:100980004E4A4F4D002902EBC00452F83070D4F8A3
:10099000048018BF0D462878012801D1686850B13D
:1009A0006878012801D1A86828B104F027FCF979FA
:1009B00031B104F0C1FD0024204604B0BDE8F0814F
:1009C0000121F97104F0B8FD00202E1D7874F88122
:1009D000B86038602988B980A98B87F86400C7E9B6
:1009E0000E00B986297DB9714ECEC7F85021C7E9EE
:1009F0001036C7F8CC10A9693963A97F87F836107B
:100A0000296AC7E91A00C7E91C00C7E93B00C7E922
:100A10003D00B96487F8E80013B92A49C7E9101006
:100A2000B8F8500002F0FCFA112002F0F9FAD8E907
:100A3000031207F14C0004F00DFED8E9051207F18E
:100A4000D00004F007FED8F8000004F07FFC204638
:100A500000F046FC204603F043FA1B4A07F5AC7051
:100A60000121234604F0E6F9184A07F5B67004217F
:100A7000234604F0DFF901AD284604F0ADFD98F8F7
:100A80000800D8F80410124A2B460194029007F18E
:100A9000140002F0DFF907F17C00002104F01CF9DA
:100AA00007F58070002104F017F9D8F80000D8E9A4
:100AB0000C12106048607FE76F5A0000285A00004F
:100AC00084580000773D000065420000C1520000DC
:100AD0008504000086B0DFF838914E4C0DF1080A0D
:100AE0000DF10408D9F82000056815B1C068066842
:100AF00000E00026606A01306062504603F032FC7C
:100B00000746029810B100F07BFD78E01DB1BE42AF
:100B100012D9002205E0D9F824000068B0FA80F06C
:100B20004209606BF11B03F06AFA00F069FD0028CE
:100B300065D104F0B5FC62E000F062FD3046394654
:100B400003F0F0FB5BE0029DB5F1FF3F2BDD049E5F
:100B5000706910B1301D04F0BBFA404603F002FC8E
:100B60000746681E08284AD8DFE800F0050531224C
:100B700042050531220096F82800039D3A4640F0D0
:100B800001002B4686F82800B0694119304603F071
:100B9000FFFCA0B396F8280041071FD400F0FA002C
:100BA00086F8280020E0DDE903200599904726E03B
:100BB00096F8281003983A463B4641F00101B0618F
:100BC00086F82810C119304603F0E2FC17E096F8C9
:100BD000280000F0FE0086F8280010E0B0693A46D0
:100BE0004119304604F0CAF8316A3046884706E0B9
:100BF00096F828008107ECD4304603F025F8606BA6
:100C00005146002200F06AFF00287FF49CAF69E79C
:100C1000B0010020880200202DE9F041D0E90074E5
:100C20008046207804F068FD62783979474D90421B
:100C30000ED1481E0A2807D8DFE800F0060606068F
:100C40005848065B0606520007203871002659E016
:100C5000481E0A2818D8DFE800F0211733170606C7
:100C600017171B170600387C10F0120F0CD0D7E9AD
:100C70000612386803263E71511A04F0B8FD386830
:100C800002F0BCFB3E7101E002203871002649E011
:100C90000A203871387C00F0200643E003F02AFE79
:100CA000B860387C00F0010610F0120F38D0D7E998
:100CB0000612032004F06DFD386802F09FFB31E05E
:100CC00004203871387C00F002062BE0B86804F08C
:100CD0006FFCF86007203871387C00F0140611E0D2
:100CE00007203871387C00F004060BE0387C800661
:100CF0000DD4B86804F05CFCF86007203871387CCB
:100D000000F00C06607888B1012811D014E00820AA
:100D1000B9693A6A04F03DFD386802F06FFB95E767
:100D200002203871607818B1012805D105F58035A9
:100D30002078294603F020F836B17A6922B140467E
:100D40003146BDE8F0411047BDE8F08104000100E4
:100D50002DE9F041044604F0DDFA424EDFF8088147
:100D6000F0680130F060D8F8000058B13069002810
:100D70004DD1E06AD8F80010C96A814298BFC8F81E
:100D8000004044E0C8F80040F06801283FD13749EE
:100D900000204FF0FF320023C82B09D0CD18C850D7
:100DA00014332F4647F8082FC5E903776F60F3E740
:100DB0002F48304900224FF0FF35034607460260B6
:100DC00043F8142F8A6547F8085FC0E90377476046
:100DD000074647F81C5FC0E9087787610F4647F868
:100DE000605FC1E91977CF650F4647F8385FC1E901
:100DF0000F774F630A6341F84C5F41F8082C41F8C4
:100E0000480C41F8443CC1E9011141F8041C7068E8
:100E1000B169013060647060E06A8842134988BF3C
:100E2000B06100EB800051F82020013241F8202011
:100E300001EB800041686061201D8A68A160E2606A
:100E40005060886004F020FB306948B1E06AD8F84F
:100E50000010C96A814203D2BDE8F04104F020BB12
:100E6000BDE8F08188020020B8030020008F002038
:100E70001C020020B00100202DE9FE4F464D0291DA
:100E8000044600F1240801264FF0000AEB4602AFA9
:100E90004FF0000904F03EFAA06B002850D10298F0
:100EA000002872D0F00703D0286B00906869019089
:100EB00004F0EAFA686A0130686204F02BFA94F8E8
:100EC0004400FF2808BF84F844A094F84500FF2898
:100ED00008BF84F845A004F0D7FA5846394602F016
:100EE000D9FE50B104F073FC00F08AFB204604F0F8
:100EF00083FA00260028CDD034E0204604F07CFAA6
:100F000028B904F064FC00F07BFB0026C2E72068EF
:100F100038B904F0FFF9A06801F0C4FA814604F082
:100F2000B3FA0299404604F0E3F804F050FC00F0F4
:100F300067FB00260028ADD104F0B2FA0026A9E72D
:100F40000138A063206810B904F062FAA06054F878
:100F5000100F28B1204601F007F908B104F0A0FAFB
:100F6000012413E0B9F1000F09D004F0D3F9D8F847
:100F7000000030B1206B0068C0F10A0102E00024DB
:100F800006E00021A06801F085FD002404F07CFA51
:100F90002046BDE8FE8F00BF880200202DE9FE4FED
:100FA000D0E900849B4615460F46814613B10020C8
:100FB000CBF8000075B104F021F9064698F8070057
:100FC00058B198F8E80070B1304604F0B5FA6FF007
:100FD000080670E06FF009066DE0304604F0ACFAE8
:100FE0006FF00E0667E000200121C8E93B75C8F8E4
:100FF000F450C8F8FC0088F8E810C8F83C0088F8FD
:101000000D0088F80B002046019404F099FB30464F
:1010100004F092FA08F1D0060DF1080A04F0EEF897
:1010200005463046514603F077FDD8F8F440D8F82D
:10103000FC10A042394438BF04460298224604F00E
:10104000E9FB3046214603F0FBFAD8F8F400D8F863
:10105000FC10001BC8F8F4000819C8F8FC0028466A
:1010600004F06AFA012C03DBD8F8F4000028D5D18B
:1010700004F0C4F80546D8F8FC00002470B10198CB
:1010800004F05EFB484600F0E9FED8F8FC000028BA
:1010900008BF6FF00F042646044601E06FF00F060C
:1010A000BBF1000F18BFCBF80040002088F8E80023
:1010B000284604F041FA3046BDE8FE8F2DE9F0479E
:1010C000DFF8FC90D9F8240038B1D9F82C000130B1
:1010D000C9F82C000020BDE8F087D9F8140010F101
:1010E0000108C9F814800BD3364841688268426011
:1010F0008160D9F830000130C9F8300003F00AFFF0
:10110000D9F820100020884553D3DFF8B8E0DFF885
:10111000B8A0DFF8B8C00021DEF804201268002A69
:1011200042D0DEF80420D268D7683E4656F8042F35
:1011300090453BD3D7E902457A69A5606C60546855
:10114000B44208BF55601468013C1460BA6A6AB1C1
:10115000D7E907455368A5606C6007F11804A342FE
:1011600008BF5560B8621368013B1360FA6AD9F88A
:1011700018309A4202EB820388BFC9F818205AF847
:10118000234001344AF823400AEB83035C687B6107
:10119000A568BC60FD606E60A660DCF80030DB6AAC
:1011A0009A4288BF0121B7E74FF0FF320846C9F8DD
:1011B0002020D9F82810002918BF0120BDE8F087A9
:1011C00088020020B0010020008F0020B80300201A
:1011D0002DE9F84F7D280746984615460446A8BFD6
:1011E0007D2717F1280FD8BF6FF0270704F006F806
:1011F00081463448C078012856D13EB2B6EB254F1F
:101200003EDD324A4FF0300BD2E90330D2E901C162
:10121000127800FB063000FB061000FB06C080FBC6
:101220000B0103F0A3FF2B49824629482A4A006894
:101230000968127801FB060080FB0B0103F096FFA2
:1012400026495044421800204BF21B71D31704F07A
:101250009BF903F0D3FB28B2A0F12801A1421BDACD
:10126000C0F17D00A04224DD7819174B00950138AC
:1012700001B2781B013002B2404602F00DFE13E0CD
:101280004FF480002C1403F0B9FB06FA85F0844279
:10129000B8BF441E21B202E07819013801B20A4AEF
:1012A00040462B4602F0AAFC4846BDE8F84F04F041
:1012B00043B9781B044A2B46013001B2404602F084
:1012C000C7FDF1E758030020D1110000F40200200F
:1012D000505A0000545A00006E5A0000006CDC02A4
:1012E000BCB5D0E90054684604F0ACF901983C4A1A
:1012F0003C4B410895F834000191105C95F835207D
:101300009A5C394B104395F836209A5C40EA020308
:1013100020682A6B03F0DAFD2068E16943F2F2727B
:10132000426419220129426311D10146D4E90A23FA
:1013300051F8305FFF2A25F4004518BF05F5004538
:10134000FF2B0D6009D00A6842F4804208E0014694
:1013500051F8302F22F400420A600A6822F48042D9
:101360000A6094F85210022906D001290BD1016BB2
:1013700041F00201016306E0016B41F006010163E7
:1013800094F853100162C16A41F01001C162016B0F
:1013900041F00101016394F8561019B1016B41F05D
:1013A00040010163E16BD1B1A16BC1B1012104F036
:1013B0003BF8E06B0D490860C1F8D804022103F046
:1013C00067FEA06B022103F063FE94F85510E06DF8
:1013D00003F0F8FE94F85410A06D03F0F3FEBCBDCA
:1013E000645A0000B95900003F5A00002C400C40DC
:1013F0002DE9F047EFF31089012080F3108803F006
:1014000029FC60B304F08AF98046800760D403F0B9
:101410003BFF002861D0334850F8C01C076811B367
:10142000DFF8C4C0824600F148024FF0FF300023CD
:10143000052B1BD021FA03F5ED070DD01CF8035046
:10144000166807FA05F4341B14F5800F28BF002432
:10145000EC40A04228BF204604320133E8E789F37C
:101460001088BDE8F08782466FF480001F494FF472
:101470007A738A6D02FB03F6B04238BF0646B6F5B2
:10148000FA7F25D9486A1A4C01304862D4F808809E
:1014900000BF00BFF01900F069FF00BF00BF206867
:1014A000C00712D1C4F804804FF47A71DAF8000052
:1014B000C01BB0FBF1F003F0F9FB0020A060206836
:1014C00040F0050020600B48606000F099F804E0EF
:1014D0005FEA487058BF03F0C9FE89F31088BDE881
:1014E000F08700BF04210240495A00008802002012
:1014F00010E000E0FF76010000F068FB04F073F9F3
:1015000003F062FC2F4C204604F058F94FF0804065
:10151000214602F0FDFADFF8B0802C4B2C4DFF2164
:1015200000220024C8F80000A847D8F80000294B82
:10153000FF210022A847D8F80000274BFF210022F6
:10154000A847D8F80000254BFF210022A84704F047
:1015500050F9244F224E3C60234C3060204604F06A
:1015600069F82248214620610A202073012000F0FA
:10157000DDFC1F4821462061002000F0D7FC1D4DF6
:10158000DFF87490DFF874A02968306800224FF00B
:10159000FF3303F093FA0228386005D00128F3D115
:1015A0004FF46434534602E04FF4E0444B46D8F81D
:1015B0000000FF21002203F07FFF204604F0F3F833
:1015C000E2E700BFE9920020F492002006590000F3
:1015D000B954000025590000C8580000E758000021
:1015E000F8920020FC920020AC920020FD4B0000FD
:1015F000294C0000B4030020945900004259000017
:101600002DE9F84303F086FEDFF8EC80D8F82400DB
:101610000138C8F82400D8F8240028B1002403F0C9
:1016200033FF2046BDE8F883D8F80C0000240028DA
:10163000F5D0DFF8C8903249DFF8C8E04FF0010C70
:101640000026D9F85820EAB3D9F86420D668B36ADE
:10165000D6E907275D6897607A6006F1180295421F
:1016600008BF5F60B462371D1A68013A1A60D6E994
:1016700002527369AA6055605D68BD4208BF5A6036
:101680001A68013A1A60F36AD8F81820934203EBFB
:10169000830288BFC8F8183051F82250013541F84C
:1016A000225001EB820255687261A868B560F06053
:1016B0004760AF60DEF80000C06A834228BFC8F808
:1016C00028C0BEE70EB103F025FCD8F82C4054B179
:1016D0000126FFF7F3FC08B1C8F82860013CF8D1F7
:1016E0000020C8F82C00D8F82800002896D003F075
:1016F000D7FE012493E700BF88020020B00100203C
:10170000008F0020B80300202DE9FC4191EA030876
:101710004CBF4FF000484FF000084FEAC32545EAA0
:1017200052554FEAC2264FEA43077F0D11BF45F0DD
:10173000004500210020BDE8FC815FF4E06E1EF151
:10174000FF0E774555D04FEAC12343EA50534FEA85
:10175000C0224FEA4104640D11BF43F00043002151
:101760000020BDE8FC81744543D0E419A3FB0501CA
:10177000A3FB06E7A2FB06631EEB030E57F100076F
:1017800051F10001A2FB05631EEB060E57F10007A5
:1017900051F10001FF1851F10001C01951F1000190
:1017A0004CBF40F2004E40F2002E10EB0E0051F103
:1017B000000148BF641C01D4400049415FF44077F8
:1017C000FF37E41BDEBF00210020BDE8FC8117F5D8
:1017D0008067BC420DD24FEAD02040EA41504FEA28
:1017E00041014FEA113141EA045141EA0801BDE8E3
:1017F000FC810020FF21C900C91D090551EA08012B
:10180000BDE8FC812DE9F04F85B03B4E994604467A
:1018100000F1100B4FF001080DF1100A0191049234
:1018200003F078FDA06BE16B884248D3B9F1020F59
:1018300045D00498002854D05FEAC87003D0306BBC
:1018400002907069039003F01FFE706A01307062AD
:1018500003F060FD94F84400FF2804BF002084F8E2
:10186000440094F84500FF2804BF002084F8450098
:1018700003F00AFE02A8514602F00CFAA0BB03F0E6
:1018800049FDA76BE56B03F0FFFDAF4210D1049952
:10189000584603F02DFC03F09AFFFFF7B1FE4FF01E
:1018A00000080028BCD103F0FBFD4FF00008B7E7AB
:1018B00003F08DFFFFF7A4FE4FF00008B0E7019999
:1018C00020464A4601F054FC54F8241F11B120462A
:1018D00000F04AFC08B103F0E3FD03F0D5FD012060
:1018E00007E003F0D1FD03E003F071FFFFF788FE8E
:1018F000002005B0BDE8F08F880200202E48017856
:10190000002956D1B0B52D4901240470D1E9012137
:10191000002AC0E9012118BF0122132100234270CF
:101920002748284A283001F095FA4FF482600321B5
:1019300003F0DCFE2448254D016841F4801101606C
:1019400048F20A002860132003F05BFF2048214A78
:101950002021002301F07EFA1F4840F6FF71046049
:1019600084601E480460D5F8D00088430821C5F87B
:10197000D000D5F8C40061F30F30C5F8C40003F0FF
:1019800034FF4FF4FA71164C0023B1FBF0F2154905
:10199000204602F07BFB03F03BFB204601F02EFDCE
:1019A000E86C102140F00040E8640F480160BDE899
:1019B000B0400020704700BF58030020105A0000BC
:1019C000F4020020891D000044000040581000402F
:1019D0007C920020115700005820004060200240F7
:1019E000C0910020093E0000005800402DE9F04160
:1019F000DFF8DC80D8F824100131C8F82410D8F8BA
:101A00003C10E9B9344B0022324903F500445D072C
:101A10004A6024F0070403F1070544F8042C18BFBA
:101A200025F007030B60A4F10801C8F83C10C91A9F
:101A300044F8082C5960C8E91011D8F83C10196016
:101A400000283ED000F00702113A824239D320F03C
:101A5000070000F11002012A33DBD8F8400082426F
:101A60002FD81C4C2668736835462746934203D20C
:101A70002E682C46002EF6D18D4222D029683C6873
:101A80003960991A112907D3A81841606A6002F0D9
:101A900085FBD8F840006B68D8F844100834C01AA9
:101AA000C8F84000884238BFC8F8440043F00040FE
:101AB0000021C5E90010D8F848000130C8F84800F6
:101AC00000E00024FFF79CFD2046BDE8F08100BF48
:101AD00088020020DC920020400400202DE9F04F15
:101AE00085B0394F01910492044600F12409012682
:101AF0004FF0000B0DF1080A04AD03F00BFCD4F815
:101B00003880B8F1000F46D10498002855D0F0076E
:101B100003D0386B02907869039003F0B5FC786AC3
:101B20000130786203F0F6FB94F84400FF2808BF08
:101B300084F844B094F84500FF2808BF84F845B005
:101B400003F0A2FC5046294602F0A4F850B103F07D
:101B50003EFEFFF755FD204603F04EFC0026002810
:101B6000CBD02DE0204603F047FC70B104994846E5
:101B700003F0BEFA03F02BFEFFF742FD002600281B
:101B8000BBD103F08DFC0026B7E703F020FEFFF782
:101B900037FD0026B1E70199204603F0A9F9A8F125
:101BA0000100A06354F8100F28B1204600F0DCFAC1
:101BB00008B103F075FC012600E0002603F064FC88
:101BC000304605B0BDE8F08F880200202DE9FE43C5
:101BD00003F014FB2C490A78012A03D1BDE8FE4327
:101BE00003F0AABC4FF0010881F8008003F0A4FCC8
:101BF0000020002601F014FA244D6C46286840F4B9
:101C000080102860204603F0E7FC214F224A15216E
:101C10002346F86801901F4801F01CF9204A1F482C
:101C20004FF0000C13781F4A007896461E4A05EBC9
:101C3000800101F54351914698421ED83A6852F806
:101C40002050002D16D4AA0708FA00F20AD4164331
:101C5000C2B2FF2A0AD07446724405F0010482F829
:101C6000BC4003E06C0748BF4CEA020C4A4605EA58
:101C700009020A6004310130DEE70C480660CEF844
:101C800000C0BDE8FE8300BFA1030020400000406B
:101C9000DC59000060920020554700006C5A00009B
:101CA0006D5A000044300240F8FFFF7F00350240CB
:101CB0002DE9F8430768797A00295FD04568D5F89F
:101CC000348001F0BFFC786F00B307F14C0420466C
:101CD00003F099FD3E6FB0421DD2387902281AD028
:101CE000B86E00284AD0204603F08DFD301AD7F890
:101CF0006890BE6F7867204603F085FD0021F97477
:101D000009EB060108440090786F0CE0B86E10B142
:101D1000386F0028D9D107F14C00694602F0FCFE6B
:101D200001217867F97448B30021B0F5806FB97369
:101D300084BF4FF480607867009901440139C8F886
:101D400004100F49C8F8081043F6F07101EB0010B9
:101D50000840D8F8081008430121C8F80800E86BCB
:101D600003F0A6F9E96B074A28681160012103F026
:101D700067FB2868816B41F400518163BDE8F883FB
:101D80000180000C28400C40F8B52F4E3468200428
:101D9000B46034611AD52D4D4FF40030B060284640
:101DA00001F0C2FB284600210022002703F0DBFAE5
:101DB0002748284D7065A86810B18047AF6005E0DE
:101DC000082002F0EBFD012002F012FD14F00A05DC
:101DD00011D0B06B082120F00100B063706D20F0CD
:101DE00000407065D6F8D00061F30F30C6F8D0001F
:101DF00003F00EF9F56020070DD503F0FFF9B16D82
:101E000021F00041B165B16D41F00041B16503F0D1
:101E100093FB0820F0600F4D296989B1204688475F
:101E200070B101207066002028610B48016841F004
:101E300004010160102002F0B1FD012002F0D8FC85
:101E4000E00658BFF8BDFEE74C100040C0910020EE
:101E500011000380580300202C000040F8B50568ED
:101E60000446D5F8F80000B1F8BD68796668022824
:101E700007D105F1D000694603F098F8C5F8F800DD
:101E800009E0D5F8EC10D5F8FC20D5F8F4001144A1
:101E9000C5F8F80000910028E6D031688A6B22F47A
:101EA00000628A6395F84410C9060AD52F6C47B1C1
:101EB000297A31B9AB6C204610210022B847D5F8F9
:101EC000F800B0F5806F84BF4FF48060C5F8F8006B
:101ED00001240099336B01444A1EB16B1A60114A08
:101EE0009A6043F6F07202EB001010409A681043BB
:101EF00098600846012103F0DBF8B16B0A4A3068AC
:101F00001160022103F09CFA3068816B41F480512A
:101F10008163287A0028A7D1012002F087FD2C7266
:101F2000F8BD00BF014000C028400C402DE9FE4331
:101F3000274A1278824247D9264A274C0029274F40
:101F400002EBC00652F83050D6F8049018BF0C4689
:101F50002068B847A8616068B847E861A068B847DA
:101F6000286220696861207B00242874286860BB8F
:101F7000E846404603F008FC194800214246029614
:101F80008DF80040019403F00FF92860E8B199F84A
:101F900000001449D9F8044099F8015003F020F9E1
:101FA0001148002D024600F5804108BF02F580323D
:101FB00008BF00F59031002C08BF114699F80000C9
:101FC00003F0FFFB344600E000242046BDE8FE831A
:101FD000BB590000CC59000058590000CF4F0000F9
:101FE000190C0000B1370000060005602DE9FC4126
:101FF0002A4C002980461E46174618BF0C4634203E
:10200000FFF7F4FC002844D0054600202169C5E90B
:102010000700C5E90200C5E90A0028632068C5E990
:1020200005760029686018BF0121297406D10120B6
:102030000021032202F006F8A86038B318480769A7
:102040001FB1416A416A01314162208921682B46F2
:10205000CDE9001582081348134901F085FC0128D9
:1020600005D12868294603F053F8002608E0A8683F
:1020700008B103F083FB284601F0E6FD0C2600259D
:10208000C8F8005037B1FFF7BBFA03E0284601F06B
:10209000DBFD0C263046BDE8FC8100BF6C5900001A
:1020A0008802002075560000265A00002DE9F843EA
:1020B00004462C480D4699469046416A01314162DA
:1020C000266806EA0500411BB0FA80F018BF01211E
:1020D000002B08BF4109A1B1089AC2B1B8F1000FA5
:1020E000404618BF0120010601F18061B9F1000FDF
:1020F00008BF0106201D294302F094F9002600279D
:1021000006E0B8F1000F1CBF26EA05002060012799
:10211000FFF776FA17BB08B903F0C2F903F09CF990
:102120000646800118D403F0F5F8266816EA050083
:10213000A0EB050118BF0120B9F1000FB1FA81F140
:1021400018BF4809B8F1000F18BF002802D026EACE
:102150000500206003F098F926F07F463046BDE880
:10216000F88300BF8802002070B5C068274DC4689E
:10217000A16AD4E907024B688260506004F118003C
:10218000834208BF4A600A68013A0A600021A162DE
:10219000696A61B11E4951F8582F4B680132A1623A
:1021A0009E68E36126620A607060986024E061695D
:1021B000D4E902024B6882605060201D834208BF50
:1021C0004A600A68013A0A60E16AAA699142114AC2
:1021D00088BFA96101EB810152F82130013342F837
:1021E000213002EB81014A6861619368A260E3607B
:1021F0005860906002F08EFE0749E06A0968C96A7B
:10220000884292BF00200120A86270BD8802002091
:10221000B0010020008F0020B80300208B4208BFCF
:10222000824207D9009A002A01D010605160002133
:1022300000207047002B08BF002A10D1009A002A06
:1022400001D01060516002000B0000210020002B23
:1022500008BF002A1CBFC943C04301F016BFF0B538
:102260001C4615460B46024600200021B4FA84F6AF
:10227000202E04BFB5FA85F62036B3FA83F7202F57
:1022800004BFB2FA82F72037F61BB6F1200727BF4A
:1022900005FA07F400257F42B4403EBF25FA07F750
:1022A0003C43B540A34208BFAA4201D3521BA341FD
:1022B000404149416D0845EAC4756408761EF1D570
:1022C000059F002F01D03A607B60F0BD70B501041E
:1022D0000BD4C1050FD480030BD51F48C16E0A294A
:1022E00033D121498164012070BD40F2022002F007
:1022F0006DFB002070BD1849D1F8B40100281AD434
:10230000164A174C174D13681060E61AD8BF5E19AD
:10231000952E10DC241A98BF4419C01A48BF4042B9
:10232000952C08DC952806D84FF4003300200B606C
:1023300010604B6070BD00200122C1F8AC01C1F8F3
:10234000AC214FF480724A6070BD0A21C1664FF41F
:1023500000314160CDE700BF54100040B0030020C1
:1023600060E31600A01CE9FF80841E802DE9F04F79
:1023700087B082462048214D0DF1080B016821F0FD
:10238000010101601E485946D5F80080D5F800913A
:10239000019090E8DC0040F24440DCC1042103F0ED
:1023A000A5F9202003F02BFA164EAAF196007062D0
:1023B00000F0ECFB04460120F060706530682020DE
:1023C00003F01DFA40F24440232103F08FF9D5F8C1
:1023D000FC000128FBD1019F9BE84F004FC7C5F8C7
:1023E0000091C5F8008001F0EBFC042002F0D6FA61
:1023F000204607B0BDE8F08F10E000E04420024026
:102400004C21024000200040F8B50668054602F065
:10241000F5FE0446F07AA0B1307A68B1686803F03E
:1024200021F90028FAD0686803F084F9002001211E
:102430003072284603F0CEF92046BDE8F84003F09C
:102440007BB80120F072284600F03EFD7179022928
:1024500008D1D6F8FC10081AC6F8FC0006F1D00026
:1024600002F020FF96F8E8000028D5D0707920B956
:1024700006F5807002F0DCFD70790128CCD10020D7
:10248000C6F8F40086F8E8006FF00D00B36CD6F8DB
:10249000EC10D6F8FC20D6F8507100902846B847CA
:1024A000BAE77047D8B1F8B5214E0446C06A316822
:1024B000C96A884215D2A169002904D43168C96A61
:1024C000C1F10A01A1611B4F00EB8000616907EBBC
:1024D000800081420DD03068C06AE06225E00020B3
:1024E0007047E16C3068C26A0020914238BF012019
:1024F000F8BD251D284602F0EBFD30680E49C06A84
:10250000E0628A69904288BF886100EB800057F8DA
:102510002010013147F8201007EB8000416860610E
:102520008A68A160E26055608D600120F8BD00BF3F
:10253000B8030020008F002088020020F8B5D0E901
:102540000056044643F2F2723068816B9143816316
:102550002046FFF759FF204601F032FA204602F0EC
:102560007BF9306802F0F2FE646800272F7294F85D
:10257000240001F095FF94F8200001F091FFE0693C
:10258000012807D194F8280001F08AFF94F82C0064
:1025900001F086FF05F1140002F0C4FF05F580701C
:1025A00001F0D9F805F17C0001F0D5F805F5AC7023
:1025B00003F0BAF805F5B67003F0B6F8B6F85000B7
:1025C00000F0F6FC112000F0F3FCEF71F8BD70474D
:1025D00070B541F00041D0E901320160D0E903411A
:1025E0009A6053604B68834208BF4A6000220261D0
:1025F00008680138086002F08DFC6169D4E90202C4
:10260000154D4B6882605060201D834208BF4A60B0
:102610000A68013A0A600F49E26A8B699A4202EB42
:10262000820388BF8A6155F82360013645F823602C
:1026300005EB83035D686361AE68A560E66070606A
:10264000A86006480068C06A824284BF0120886290
:1026500070BD00BF88020020008F0020B80300205A
:102660002DE9F84FFF2002F047FE1E4C206820F0B5
:10267000040020606FF0FF0002F030FE2068DFF8F9
:102680006880A34620F008002060D8F800A002F07F
:10269000C9F805464FF00009BAF1000F17D0BAF992
:1026A0000E705646DAF800A0BD4203DDB6F90C7094
:1026B000BD42F1DB4046314602F038FBB468326976
:1026C00028463946334686F81490A047E4E701F0DF
:1026D00069FEDBF8040000F00C00CBF80400BDE854
:1026E000F88F00BF48600040CC920020F8B5044647
:1026F00002F010FE0CB91D480468251D284602F0A2
:10270000E7FCA06A18B104F1180002F0E1FC184FD0
:10271000164E7868013078603068844208D0F868D6
:102720000138F860204602F01BFF02F0F3FB0AE0DC
:1027300010482946303002F09BFEB8680130B8607E
:10274000204602F00DFF02F09FFE3068844202D066
:10275000204602F07DFC386910B13068844200D018
:10276000F8BDBDE8F84002F09BBE00BFB8030020F2
:1027700088020020B001002070B5044602F0CAFDB6
:102780000CB91D480468251D284602F0A1FCA06A6A
:1027900018B104F1180002F09BFC184E294606F10E
:1027A000440002F065FE94F86000012804BF002098
:1027B00084F8600002F068FE114D286928B102F02B
:1027C000A9FD02F0A7FB02F05FFE0B4801688C42F6
:1027D00000D070BD296919B1BDE8704002F060BE3B
:1027E000716CEA68914202D10021016070BDBDE8C0
:1027F000704000F091B800BFB8030020B001002085
:102800008802002070B5A0B30446C06B88B30D46A3
:10281000216C0026A0FB010161BB02F07BFDFF20C3
:10282000A66384F84400D4E90F23216884F84500A6
:10283000501E03FB021600FB0310C4E90116E06002
:10284000D5B14FF0FF30002144F82C0F224644F858
:102850001C1C42F8140D44E9042244F8182C44F8D6
:10286000081CC4E9014444F8044C02F00DFE0126A2
:1028700000E00026304670BD04F110000168002918
:10288000F3D0FFF771FC0028EFD002F009FEECE76F
:102890002DE9F041DFF874801D4F04460D46D8F84D
:1028A00014603868043002F013FC601C15D1A5B127
:1028B000184D386839683A683B683C6855F8446F89
:1028C0006F6865618760B868C860711C2960111DF8
:1028D0004160181DB860BDE8F0813868A4194460F3
:1028E0000C4806D3806839680431BDE8F04102F035
:1028F00042B940683968043102F03DF9D8F8200047
:10290000844238BFC8F82040BDE8F081880200202A
:10291000B8030020B0010020B0B51D4C606A10B1B2
:102920000120A062B0BD00201A4DA0622868006B93
:102930000168B1F1A53F0BD14168B1F1A53F07D1C5
:102940008168B1F1A53F03D1C068B0F1A53F04D0C3
:1029500028682968343102F020F8A0690E4A00EB9B
:102960008001013002EB8101183151F8182C013837
:102970001439002AF9D00A680B46526804C39342FE
:1029800001D152680A60D1682960A061B0BD00BF62
:1029900088020020B8030020008F00202DE9FE43AC
:1029A00002F02CFCDFF85880044698F8000010BBB9
:1029B00014480221D0E90057806802F097FE6E4665
:1029C000304602F009FE1048104A4FF0010929462E
:1029D000334601978DF8089000F03CFA0C4800212E
:1029E00001600C480321C0F8001888F800900168C5
:1029F00041F004010160204602F09EFDBDE8FE8327
:102A0000A2030020EC590000449200207946000007
:102A100048600040005800402DE9F041184C2078F3
:102A200008B1BDE8F081174F1748184901254FF04C
:102A300000080022D7F8B0603D60C7F8B880FD609C
:102A400002F0A9FC40F24440232102F04FFE7D60D9
:102A50000F4F07F1280002F03AFD6FF48000304478
:102A6000F861BE61A7F80180257002F0C7FB04463B
:102A7000F86902F0BDFA2046BDE8F04102F05CBD05
:102A800057030020542002407C920020E12D0000DA
:102A9000B0010020B0B370B50446C06AE26C8A424F
:102AA00088BF114688422BD0226D012A28D1A26905
:102AB000E162002A02D4C1F10A01A161124E00EBC9
:102AC0008000616906EB8000814219D1251D2846EE
:102AD00002F0FEFA0D49E06A8A69904288BF886177
:102AE00000EB800056F82010013146F8201006EB6C
:102AF0008000416860618A68A160E26055608D6015
:102B0000BDE87040704700BF008F002088020020A1
:102B1000B0B551B304464FF055304FF0333200EAB0
:102B20005400201A02EA900220F0CC3010444FF0FA
:102B3000013200EB101020F0F0305043000E02285C
:102B400013D2082C01F1080598BF08242819FEF7B4
:102B50004DFF70B12118621E024210D06242114036
:102B60000839814238BF21440AE001F09BFB16215D
:102B700002E001F097FB0C2101600020B0BD083994
:102B8000C1E9000501F10800B0BD7047B0B50120F2
:102B900001F004FF044648BB174D01F099FA28B133
:102BA00002F006FC286820F001002860E86920F0A7
:102BB0000040E861EFF31485A807104803D40168CA
:102BC0000020884710E0002181F31488BFF36F8F45
:102BD000016800208847022080F31488BFF36F8FBC
:102BE00085F31488BFF36F8F02F012FA04480021B6
:102BF00081702046B0BD00BF841000404C00000F23
:102C0000580300202DE9F0470A9C82460E461746DD
:102C10009100A5229846206B02F0C0FD216BDDE9F2
:102C2000082901EB8700043820F00700206466B112
:102C300004F1340300270C2F04D0F55DDD55013776
:102C4000002DF8D1002384F83F300023092A28BF43
:102C50000922C4E90943C4E904434346C2F10A0511
:102C6000E264E2625246A56100F02AFBB9F1000F6E
:102C7000206018BFC9F80040BDE8F0872DE9F8438F
:102C800081461B484FF0000809F10C06426A0132E8
:102C90004262D9F80000D9F810700843C9F8000062
:102CA000B74218D03846D7E90047D9F8001024F0C9
:102CB0007F45630101EA050202D4002AF0D001E059
:102CC000AA42EDD141F00071FFF782FCE00148BF5C
:102CD00048EA0508E4E7D9F8000020EA0800C9F846
:102CE0000000FEF78DFCD9F80000BDE8F88300BFB6
:102CF000880200202DE9F8431F4690460D460646FF
:102D000002F0F0FB8146B06BF16B884201D3022FD9
:102D100023D196F94540B06B29463A46304600F03B
:102D200027FAE0B2FF2808D00F49C968A14284BF42
:102D3000013086F84500012610E056F8240F0028DF
:102D4000F9D03046FFF710FA0126B8F1000F18BF8E
:102D5000002803D0C8F8006000E00026484602F0D2
:102D6000AFFC3046BDE8F88388020020E0B5174884
:102D700040F66102016862F30B010160416862F391
:102D80000B014160FEF7BAFD01F0A8FB1048134AA1
:102D900040F2A313016841F00101016000201621F7
:102DA000CDE900100B480C4902F00EFB6FF031002A
:102DB000022100F0FDFEFEF709FF00F0D1FE00F059
:102DC0007FFEBDE88C40FDF744BC00BF18110040F9
:102DD0001400004041F1A303F60BE4FF3F74FFFF32
:102DE000F8B51A4C0125256002F008FA184FD4F8FE
:102DF000B060FC69A7F8015002F09EFB361B00256D
:102E0000AE4207D32C440120761B214600F0ECFB98
:102E10000546F5E702F0F2F90646B878012804D134
:102E20000020214600F0E0FB05466FF4800085425B
:102E300038BF2846204402F0DBF80020BC617870DF
:102E40003046BDE8F84002F077BB00BF5420024096
:102E5000B00100207FB568B11E460D4604465BB147
:102E60007068C1B2FF2910D01449096DA9420ED073
:102E700070280CD100241EE001208DF80C004FF0CA
:102E8000FF3002900020019001AE602070600C487D
:102E90000C4940F825403068C4E90052A06028463B
:102EA00001F080FE3179284602F0B6F9307A10B18F
:102EB000284601F083FC204604B070BD8802002043
:102EC00000000020054D000070B50568D5F8F81029
:102ED00009B34468184EA16B20683160022102F0EA
:102EE000A3FAA26B2168206BC6F8D8248A6B22F45F
:102EF00080528A634FF480524A6402F063FB0446B6
:102F0000D5F8F800011B6879022806D105F1D00038
:102F100001F0EBFD0BE000240CE0D5F8F400D5F84F
:102F2000FC200A44401AC5F8FC20C5F8F400002033
:102F3000C5F8F800204670BD2C400C40F0B540F6B6
:102F4000FF7C10F8013B0024082CFAD00646DF076E
:102F500016F8015B0DD1477807F00F060336122EE5
:102F60000DD190F90220D6B2B2F1FF3F09DD033056
:102F70000DE001F8015B304601345B08E4E7023004
:102F800006E0C27806F07F06043046EAC216123622
:102F90003F0947EA0512624508BFF0BD2A013A44DD
:102FA000D543002EE8D04A5D013E0A700131F8E7B2
:102FB00070B5054602F022F90446284601F0ACFA45
:102FC0000138C6B22846314601F01EFB26B1204624
:102FD00002F0B2FA002070BD05F47F40B0F5007F2A
:102FE00012D0B0F5807F08D00028F0D1E8B20121DE
:102FF00001FA00F009490860E9E7E8B2012101FAA5
:1030000000F006494860E2E7E8B2012101FA00F069
:10301000002180B202F00EF9D9E700BF2000024083
:1030200070B5054602F0EAF80446284601F074FA45
:1030300006460130C1B2284601F0E6FA300604D057
:10304000204602F079FA002070BD05F47F40B0F50B
:10305000007F12D0B0F5807F08D00028F0D1E8B210
:10306000012101FA00F009490860E9E7E8B201210D
:1030700001FA00F005494860E2E7E8B2012101FAEF
:1030800000F0002180B202F0E3F8D9E7140002401A
:103090002DE9F041B3F1FF3F03DC5B42B1F1FF3FAB
:1030A00024DD4FF0000C4FF0010EDFF85080471E7A
:1030B0000026B1FBF3F505FB131418F80440BC55CA
:1030C000013E8B422946F4D9304471423023013805
:1030D000914203DA00F801390131F9E7BEF1000F3E
:1030E0000CBF80F800C00130BDE8F081013A4942D0
:1030F0004FF02D0C4FF0000ED7E700BFA85900008D
:103100001CB502F007F9154C606B10BB1448002188
:10311000144B024642F8281F40F83C1FC3E9082020
:103120004FF0FF32034643F80C2D40E9023340F8DC
:10313000103C034643F8082F0C4AC0E903334360B0
:1031400009480091102100F12003142001F029FE0C
:103150006063BDE81C4002F097B900BF8802002000
:103160001C020020B001002040010020C08D002082
:1031700070B51546866B026C0446CAB105B3E068AB
:1031800002F048FBE268206C2168121A8A42E26071
:1031900003D2A16840420844E060002E304618BFC8
:1031A0000120A91EB1FA81F149090840361A13E03D
:1031B0002068002580B9A06800F0ECF8A5600CE05C
:1031C000606802F027FBD4E90101226C10448842B8
:1031D000606001D3206860600020711CA16370BD35
:1031E0002DE9F041804602F095F898F84570174EA9
:1031F00008F12405012478B2012808DB286830B1E1
:103200002846FEF7B1FF00B1B462013FF3E7FF20AB
:1032100088F8450002F038F902F07CF898F844701C
:1032200008F11005012478B2012808DB286830B1C4
:103230002846FEF799FF00B1B462013FF3E7FF2093
:1032400088F84400BDE8F04102F01EB98802002071
:103250002DE9F84390460F46064602F043F9B46B59
:1032600081469CB196F944503046394601F040FE03
:10327000601EB063E8B2FF280AD01049C968A942AD
:1032800084BF013086F84400012610E000260EE0DD
:1032900056F8100F0028F7D03046FEF765FF0126DC
:1032A000B8F1000F18BF002801D0C8F800604846E8
:1032B00002F006FA3046BDE8F88300BF880200201D
:1032C000F0B540F8481D4FF08071DFF85CC04FF05A
:1032D00012344FF003354FF002364FF0013741649E
:1032E0004FF0113100F1240EC0E90C6502644FF07B
:1032F00009324FF006354FF00536AEE88A00C0E9D6
:103300000E4C4FF0103C4FF008334FF007344FF0A5
:1033100004376FF00201C0E90365C0E90117C0E995
:103320000543C0E9072CF0BDEB550000002927D468
:10333000FF2804BF4FF0FF307047F0B5114D124B1E
:103340008C0707D42E1801F0010786F89C7001261F
:1033500086401E60012686404F074CBF45F8086B2B
:1033600010352E60094D29401143094A002C42F8BE
:10337000201003D5012101FA00F018610020F0BDF2
:10338000002070476430024010350240F8FFFF7F94
:103390000031004058B3B0B50446C26AD0E91330DA
:1033A000411E00209A42216520D0F9B9251D2846EA
:1033B00001F08EFEE06CC0F10A01E062A1610D49EE
:1033C0008A69904288BF88610B4900EB800051F800
:1033D0002020013241F8202001EB8000416860612B
:1033E00001208A68A160E26055608D60B0BD002058
:1033F000704700BF88020020008F002070B505468E
:1034000001F0FCFE1449154A04464B7810682BB1B4
:10341000AA681044E860012088700BE08E69CB69CF
:103420008969861B591A8E420AD91068A96808440E
:10343000E860012028752046BDE8704002F07CB8A5
:10344000A9680A18181AEA60012281422A75F2D284
:10345000E86801F0CDFDEEE7B00100200421024054
:10346000EFF309801EF0100F08BF20ED108AEFF374
:103470000B82734620E9FC0F114A116808604FF077
:10348000100080F31188BFF34F8FBFF36F8FFFF7EA
:1034900043FA4FF0000080F31188094A1168086868
:1034A000B0E8FC0F13F0100F08BFB0EC108A82F3E5
:1034B0000B8880F30988184700BF00BF00BF00BF1A
:1034C000B803002010B500F0CBF9002801D000208F
:1034D00010BD012010BD00BF10B500F0C1F90028DB
:1034E00001DB002010BD012010BD00BF10B500F0B1
:1034F000B7F9002801DD002010BD012010BD00BF7C
:1035000010B500F081F9002801DA002010BD01207B
:1035100010BD00BF10B500F077F9002801DC0020D5
:1035200010BD012010BDFEE770B5054601F066FE36
:1035300004460020124E28757078012802D101201F
:10354000B07018E0E868F169884214D10D490D683F
:10355000B169B269691A801A81420CD200202946E9
:1035600000F042F86FF48001884238BF01464819E4
:1035700001F03EFDB5612046BDE8704001F0DCBFC2
:10358000B00100200421024070B50D46064601F04E
:10359000A9FF0446B16BF06B81420FD296F945004A
:1035A0000131B163C1B2FF290ED00E4AD268824206
:1035B00084BF481C86F84500012600E0002620460E
:1035C00002F07EF8304670BD56F8240F0028F3D084
:1035D0003046FEF7C9FD0126002DF0D00028EED0C0
:1035E0002E60ECE7880200202DE9F04105461448E2
:1035F0000C464FF0FF364FF0000800F128073F68F7
:10360000D7B1387D0028FAD06DB1F868A0420AD150
:103610003969F86919B1FA681144F96001E087F86D
:103620001480B9698847387D0028E8D0F868001B05
:10363000B04238BF0646E2E73046BDE8F08100BF41
:10364000B001002070B50468616F31B34568134E56
:10365000E96B28683160012101F0E6FEEA6B296818
:10366000686BC6F8D8248A6B22F400528A634FF440
:1036700000524A6401F0A6FF616F091AE07C20B194
:1036800004F14C0000F0DCFF05E0206FA26F401A4F
:1036900020675018A0670020606770BD2C400C4068
:1036A0001FB5104812498022002302900E48019055
:1036B000002000900D4800F013FB0E4CE06168B153
:1036C00000F056FC50B101F00DFF4FF0FF302062CA
:1036D000012020610020606100F0EAFF06480068D8
:1036E0001FBD00BFB09000204088002011390000AD
:1036F000445A000088020020685A00007FB50D4639
:1037000002A980EAE57000911C4682EAE37285EA2C
:10371000E571B0EBE57083EAE37361EBE571B2EB61
:10372000E47263EBE473FEF779FDDDE90223089EA2
:1037300083EAE57382EAE572B2EBE57263EBE57367
:10374000C6E90023E21782EAE57251405040801A30
:10375000914104B070BD7047B0B5044613200021FC
:10376000002501F0D5FE0320002101F0D1FE072D38
:1037700011D885F0070024FA00F000F001010520BF
:1037800001F0C6FE0320012101F0C2FE102001F06D
:10379000D3FB0135E7E71320012101F0B9FE03480F
:1037A00001682820BDE8B040084700BF9400000F22
:1037B000B0B513490446114809780430E1B150F816
:1037C000082B01391278A242F8D150F80C5C286815
:1037D000A96902F00CF82868FFF710FE2879013873
:1037E000C0B209289ABF0749085C01202871204609
:1037F000BDE8B04001F082BEB0BD00BFCC590000B2
:10380000BB5900001C5A0000F0B5144D21F00044D3
:10381000464275EB040604D323F000465742B541F7
:1038200002D24FF0FF30F0BD42EA000534432C4392
:1038300007D013EA010406D4841A71EB0304F0DB09
:1038400005E00020F0BD141A73EB0104E9DB5040E1
:103850005940084318BF0120F0BD00BF0000F07FB1
:10386000F0B5144D21F00044464275EB040604D334
:1038700023F000465742B54101D20120F0BD42EA93
:10388000000534432C4309D013EA010408D4841AF8
:1038900071EB030408DA4FF0FF30F0BD0020F0BDFB
:1038A000141A73EB0104F6DB50405940084318BF6B
:1038B0000120F0BD0000F07FB0B588B0FFF756FAE8
:1038C00002AC204601F06AFE0120019001A92046C9
:1038D00001F094FE05462046012101F043FF054317
:1038E00020464FF4806101F078FF284300D0FEE7C6
:1038F000064A07A802A90023FEF778FB00B1FEE7FD
:10390000FFF7CEFE002008B0B0BD00BFF9140000E4
:10391000134D144EA86890B101F0FCFCF06BC46824
:10392000201D01F0D5FBE8680138E860A86801387F
:10393000A86001F0A9FD204601F08AFBEAE701F04A
:10394000A5F80228E6D3686A0130686201F09EF8A3
:10395000022802D3A86501F00DFEFDF751FED9E75C
:1039600088020020B00100202DE9FE4F074690009C
:10397000984615468946FEF739F8E8B106466420B0
:10398000FEF734F8A8B1DDE90CBA6421044601F071
:1039900063FA384649462A4643462663CDE900BACB
:1039A0000294FFF72FF92046FDF7D2F90120BDE878
:1039B000FE8F304600F048F94FF0FF30BDE8FE8F33
:1039C0007CB5066804463079012888BF7CBD01F0CB
:1039D00015FC054696F86400C0B10020306786F8F3
:1039E0006400B07A90B90120B07206F17C0001F059
:1039F0001FFB3079012809D1B36CB16EB26FD6F8D4
:103A0000CC606FF00D0000902046B0472846BDE81E
:103A10007C4001F091BDB0B5054601F0A9FE044619
:103A2000456201F0A5FE0121C161A16A31B1D1E970
:103A300000238868096991629847F6E7204600F0FC
:103A4000CFFB207C38B1204600F0FEF80020BDE816
:103A5000B040FEF74BBEA068002100220023FDF716
:103A6000D1FE0020BDE8B040FEF786BE70B5D0E9BB
:103A700001561C46B168686800F0F0FF00B170BDE7
:103A8000318A049BF0682246023901F0C0FEF068DA
:103A90000022815C01320029FBD110440D2100235A
:103AA00000F8011C0A21F06881540132F16828688D
:103AB00001F0F8FD6868BDE8704001F0B9BA7047E0
:103AC000B0B500F02DFE0E4C0E4D1320611CA84722
:103AD00003202146A84705202146A8470A4904207B
:103AE000A847B920FFF738FE084C1320A047032051
:103AF000A0470520A04704202146BDE8B040084764
:103B000000040020C357000002200460A14400000C
:103B10002DE9F84305461048DFF8388000290F4C9E
:103B200018BF8846002690F80090B1450ED027684F
:103B3000B54203D0F8698047284204D07A6820460D
:103B40004146904718B90C340136EEE70024204670
:103B5000BDE8F8834F5A00004E5A0000045A000096
:103B60000E48017801B1704710B501240D4A0421B7
:103B7000002304700A4801F05DF91120FFF750FAA4
:103B80000948FF2181620949846409684160046031
:103B90001120BDE81040FFF70BBA00BFC0030020A2
:103BA000989200208D48000004400C40605A0000AC
:103BB00070B5104E0446F07800B170BD0120C1EA26
:103BC0000445F07000F0C6FC00F02CFEA04207DDBA
:103BD00006F1180300212A46BDE87040FDF7F8BA47
:103BE000054A06F1180021462B46BDE8704000F05A
:103BF00005B800BF58030020D11100002DE9F041A5
:103C00001F4614460D46064601F0F8FA8046307D00
:103C10004FF47F41B5813761B460F18138B909480B
:103C2000314601F0F5F8F189B5890120307528B2E7
:103C300009B200F0CBFC404601F07EFC0020BDE85C
:103C4000F08100BFCC92002040B150F8042CB2F1BA
:103C5000FF3F03DCA0F108010B6803B1704710B50A
:103C600022F000420A4C40F8042C626A013262627F
:103C700050F8040C226C10442064084600F08EFAC0
:103C8000E06C0130E064BDE81040FDF7B9BC00BF56
:103C900088020020F8B50C46054601F03BFB0F48B2
:103CA000426921684B1C0FD0D5E90063076BB7420E
:103CB00001D09A420AD2D21A914207D9891A2160B8
:103CC000016B296040696860002402E000202060E8
:103CD000012401F0D9FB2046F8BD00BF8802002076
:103CE0002DE9FF470D9D07460020E5B10E9CD4B19C
:103CF0000E46DDF830A0204664219846914601F03A
:103D0000ABF80220256331464A46434684F86100F9
:103D100003A80294CDE900A03846FEF773FF2046C1
:103D2000FDF716F8039804B0BDE8F08770B50E46AD
:103D3000A8B1CEB10546304600F016FEC0B104462B
:103D400055F8040C29460838B04238BF06462046CC
:103D5000324601F05FFD284601F0FEFC09E03046E6
:103D6000BDE8704000F000BE00F09CFA1621016032
:103D70000024204670BD7047FF281BD0B0B50C460C
:103D8000054601F03BFA0C49C4F3014311F8252024
:103D900002F0FC021A4401F8252001F0CDFB0120BD
:103DA0000649A84062074CBF41F8080B1031086073
:103DB000BDE8B040704700BF0231004064300240AF
:103DC0000E4841680A884988114302780ED0012ABA
:103DD00007D00B4A0223936013689B07FCD501228E
:103DE000027021F00100074908607047002AFCD0EA
:103DF000034902224A61002101707047A403002098
:103E00000C0002400400084080B501F0F7F90E49AB
:103E10000A6D02F0F052B2F1206F10D1CA6F082380
:103E200063F30F32CA67094A0A600A6D02F0F05262
:103E3000B2F1206FF9D00A6822F000420A60BDE8B2
:103E4000804001F079BB00BFA0100040120001804B
:103E50002DE9F0411F4614460D46064601F0CEF905
:103E6000317D8046FF20F5813761B460B08139B97A
:103E70000848314600F0CCFF0120F5893075B08943
:103E800000B229B200F0A2FB404601F055FB002031
:103E9000BDE8F081CC9200202DE9F0411C4615468A
:103EA0000E46074601F0AAF980460698FD81BE81BC
:103EB000BC603861387D38B90848394600F0A8FF41
:103EC000FD89BE890120387530B229B200F07EFB31
:103ED000404601F031FB0020BDE8F081CC9200208B
:103EE000B0B5456802212A6C95F82400FFF71EFA48
:103EF0000C4C6A6C95F820002146FFF717FAE86928
:103F0000012818BFB0BDAA6C95F828002146FFF71C
:103F10000DFAEA6C95F82C000221BDE8B040FFF7DD
:103F200005BA00BF020004600CB54FEA41034FEA36
:103F30005353B3F54073FF3B44BF00200CBDD3F196
:103F40001F030FD94FEAC12242F0004222FA03F2C6
:103F50000B2B3EBF1533D840024300294CBF5042C3
:103F600010460CBD00294FF0004058BF401E0CBD4C
:103F70001FB5FFF7C5F80B4C606B80B10A480D49BF
:103F800080220023029009480190052000900848F3
:103F9000FFF7A6FE0028A06318BF012000E0002064
:103FA00004B010BD8802002014910020408A002037
:103FB000D50A0000305A000070B50D46044601F0E5
:103FC0001DF9D4E901128A4204D101F0B5FA4FF08B
:103FD000FF3070BDE36822680133B3FBF1F606FBE6
:103FE00011315554E160A168626901319142A160CB
:103FF00088BF0A46626101F09FFAA06870BD70B583
:1040000015460E46044601F085F994F84400FF2851
:1040100004BF002084F8440094F84500FF2804BF42
:10402000002084F8450001F02FFAA06B28B904F1B4
:10403000240031462A4600F0D5F92046BDE87040FC
:10404000FFF7CEB8F8B1F8B50D460646A0FB010162
:10405000B9B905FB06F010F1510F12D850301446D3
:10406000FDF7C4FC0746002057B187F8460007F16A
:104070005002304629462346009700F0F9FF3846A3
:10408000F8BD0020F8BD002070477047B0B5044669
:10409000B8B10D4D002B18BF1D46D5E901032061B5
:1040A0000020A161E361A2602075FEF7B5FC07481E
:1040B0002146283000F0ACFE287810B12046FFF7EA
:1040C0009DF92046B0BD00BFF8590000B0010020A6
:1040D0000F48FE220023016802EAD13201F07F017D
:1040E000511A4FF0000238BF1146102988BF012332
:1040F000406BC0F30330032888BF01221A405242AC
:104100000828104638BF01200A2928BF10467047EA
:10411000E8100040002944BF0020704704B54FEA72
:1041200041024FEA5252B2F54072FF3A44BF0020BA
:1041300004BDD2F11F020CD34FEAC12141F000416E
:10414000D1400B2A3EBF153220FA02F21143084635
:1041500004BD0020401E04BD0D4910F1020F0D4AA0
:104160006FF0FF03C8BF01F5800100FB0211C81703
:1041700001EB9020821512F5807FC8BF8315064899
:10418000B1F1804F00EA0320A8BF4FF47F40704791
:10419000F2FF46003C553D0000FF0100B0B50E4A5D
:1041A000114612688242FBD34C6843680D19854260
:1041B00002D1234408464B60C418944207D1074CEF
:1041C000E46BA24203D0D2E900242344436081423D
:1041D000026018BF0860B0BDDC9200208802002099
:1041E000B0B504460E48416A01314162E06A90B1BF
:1041F00001680569E162D5E9002101B10A6002B1F7
:1042000051608168096811B1C06800B188472846CB
:10421000FFF71AFDEAE7BDE8B040FDF7F1B900BFCE
:10422000880200200F2806D00E280AD10B4801680A
:1042300041F0006103E00948016841F0007101604C
:1042400070471038222808D800F01F0101224009C9
:1042500002FA01F1024A42F82010704704ED00E032
:1042600080E200E0012818D1B0B555680C4995F8F6
:1042700052204C1C95F82400002A08BF2146002239
:10428000FFF754F8E869012805D195F82C0021467C
:104290000022FFF74BF8BDE8B0400020704700BF98
:1042A00000040020B0B50C480C4D016989B10C4CDC
:1042B000406A206800B92068816D59B90420FDF773
:1042C00095FB294630B1216801B92168886501460E
:1042D00000E029460846B0BD88020020F092002088
:1042E000B8030020E0B5FFF7EAFB4FF0100080F3C1
:1042F0001188BFF36F8FBFF34F8F019001A94FF06B
:10430000A5320548884201D204C0FBE703480449AE
:10431000016000F00FBB8CBD0080022008ED00E0C2
:104320008000000070B506460D480D46006AC06862
:10433000C468201D00F0CCFE94F82800410704D486
:1043400000F0FA0084F8280004E0204631462A46AE
:1043500000F014FD216A2046BDE87040084700BF08
:10436000B0010020F8B50D4E04467569B06E854267
:104370000AD20B4F386A016841B1C0684FF0FF3173
:104380000068FFF7CFFFF5E7002003E0796AC7E98F
:104390000810012020602846B566F8BD880200207C
:1043A000B0010020F8B50E4DFF264FF47F4700F016
:1043B00025FF04462D6830B239B255B1B5F90E70FB
:1043C000B5F90C60B942C8BF0F46B042B8BF064647
:1043D000F0E700F0FBF82046BDE8F84001F0ACB88B
:1043E000CC92002070B50E4B1C684568E561AC6846
:1043F0001E6834621E68183666601C681834AC602B
:104400001B68986203680133002A036018BF4FF0ED
:10441000FF3108461146BDE87040FEF739BA00BFCB
:10442000B8030020F0B50E4B41F000411C68456810
:104430001E68F561AE681F68A1613E621968183197
:10444000716019681831A9601968886201680131C2
:10445000016010460121BDE8F040FEF719BA00BF27
:10446000B8030020F0B589B00446D0E9016768467A
:1044700001F06CF9786800258DF801500690012054
:1044800000F000FD706040B138786946FCF772FAC0
:104490000028306008BF04462546284609B0F0BD14
:1044A000FF2817D0B0B5044601F028F80A4D286857
:1044B00050F82410204601F084F9686850F8241060
:1044C00011B1002140F82410A868002140F8241000
:1044D000BDE8B040704700BFDC590000B0B50B48E4
:1044E0000B490C4D01610120E86400F09FFA00F0D7
:1044F00085FE04462868000403D440F2022000F040
:1045000065FA2046BDE8B04001F016B85803002017
:10451000CD2200004410004000F47F41B1F5007F3F
:104520000DD0B1F5807F05D079B9094951FA80F0F5
:10453000443008E0064951FA80F0143003E00449A1
:1045400051FA80F01B30007870476FF0010070471F
:10455000F4020020B0B500F051FE0A4D0446287860
:1045600058B9FEF71BFA08490C2000F00FFE074867
:104570000168C907FCD0012028702046BDE8B04082
:1045800000F0DABFA3030020612600003460004081
:1045900010B50C460146006141F8044F944206D91B
:1045A000094820309A4208D29C4206D30AE080692A
:1045B000D21A824206D204482430006800F0DBFAA6
:1045C000002010BD012010BDB001002070B50C4EC0
:1045D0000C460C4DB6F90010814205DD00F08CFE52
:1045E000286840F004002860B6F90200A04206DA0C
:1045F000204600F073FE286840F00800286070BD77
:10460000AC0300204860004000F47F42B2F5007F18
:104610000DD0B2F5807F05D072B9084A52FA80F009
:10462000443008E0054A52FA80F0143003E0034AAF
:1046300052FA80F01B300170704700BFF402002076
:10464000F8B50C46054600F0D9FD2B1D6E690ECB62
:104650008F1AA74238BF3C4622442344B24288BF47
:1046600016466E61B3FBF1F606FB1131C5E9022176
:1046700000F062FF2046F8BDB0B50A480A4C056854
:10468000A068284002D0E16801B18847206828402E
:1046900002D0616801B1884704480068BDE8B040B5
:1046A00001F0ADB84C60004088030020EC590000D8
:1046B00080B50B48016841F47F010160016841F059
:1046C0007F41016000F046FB06480021016000F0D8
:1046D00037FCFEF721F900F088FF002080BD00BF05
:1046E00020ED00E0BC03002070B50948094C84426D
:1046F0000BD0094D094EB54207D0F5E8020110F87C
:10470000012B54F822209047F5E700BF00BF70BD91
:10471000D05A0000C45A0000E85A0000085B0000AC
:1047200080B50A49132001F04CF81320002100F055
:10473000EFFE022000F000FC1320012100F0E8FE53
:10474000034801682320BDE8804008470104002099
:104750009400000F70B50A480A4D012604680461F0
:104760006CB1B4FA84F0696880F01F0006FA00F2B8
:1047700051F8201094430029F2D08847F0E770BD2B
:1047800054300240DC5900000F2805D10A48016866
:1047900021F0020101607047103822280AD8064A29
:1047A000410900F01F0002EB8101012202FA00F032
:1047B000C1F87001704700BF10E000E00F2805D17C
:1047C0000A48016841F00201016070471038222850
:1047D0000AD8064A410900F01F0002EB81010122BC
:1047E00002FA00F0C1F8F000704700BF10E000E0EE
:1047F00010B5044600F002FD08490A5D013A0A5569
:10480000095D31B9064A0121A140D36823EA0101BB
:10481000D16000F091FE002010BD00BFE4920020A6
:104820005803002009480A490A4A006840F38A10E0
:1048300000FB0211CA1701EB922201F580019215CB
:104840000628C8BF8A0D10B2704700BF3060004014
:10485000778574FF1CB21000F8B5D0E900760546E4
:1048600000F0CCFC0446787A58B12846FEF7EAFE00
:10487000304600F0B5FD28460021002600F0AAFFD2
:104880007E722046BDE8F84000F056BE042811D1E3
:1048900080B51120FEF7C4FB084A0748FF211268C3
:1048A000816201218164426001601120FEF780FB7A
:1048B000BDE880400020704704400C40605A000072
:1048C000B0B530B1A0FB015050B1FFF7EBFC8B212C
:1048D00002E0FFF7E7FC1621016000242046B0BD8E
:1048E000284600F041F80028F7D02946044600F099
:1048F000B3FAF3E701480068704700BF04210240A3
:104900000B4A1168086806C881F30B88022181F3FD
:104910001488203080F30988BFF36F8F4FF00000B8
:1049200080F31188104700BF00BF00BF00BF00BF69
:10493000B80300200A4880F308880A48016841F457
:104940007001016000BF00BF00F066FF08B1FFF713
:10495000CBFE0020FEF7B0FF012000F041FF00BFBA
:104960000088022088ED00E010B510B110F1080FAA
:1049700005D3FFF797FC16210160002010BD00F160
:1049800008042046FDF732F818B1C0E900040830E9
:1049900010BDFFF787FC0C21EEE7FEE7B0B504463B
:1049A0000948056855B1A868204205D0D5E9033209
:1049B00020460021984718B92D68F3E70020B0BDC4
:1049C0004FF0FF30B0BD00BFD49200200A494FF431
:1049D0000072C1F8BC010120C1F8C8010867C1F824
:1049E000C4210022C1F8AC214FF480720A60C1F8E2
:1049F000AC014A60704700BF5410004010B5044637
:104A000008484461C068C00648BF10BD00F0F6FB0E
:104A100005490A6864F319020A60BDE8104000F015
:104A20008BBD00BF58030020A4100040B0B5044661
:104A3000012000FA04F500F0E1FB0649CA682A43A8
:104A4000CA6005490A5D01320A5500F075FD002073
:104A5000B0BD00BF58030020E492002080B50A4A90
:104A60001268D20504D000210022FEF7F1FB05E018
:104A70004FF47A72B1FBF2F1FCF7FEF9013818BF7E
:104A80004FF0FF3080BD00BF04ED00E00849094849
:104A90008A690068C06A08B1002070470648036848
:104AA0000020012B03D812B9086A4969401A7047DF
:104AB00088020020B8030020008F0020BCB50D46FE
:104AC0004FF47A7114460122B3FBF1F123460091B1
:104AD0002946FDF7EBFA00EA0501002C084618BF4D
:104AE0000020A94208BF0846BCBDB0B50C4605462B
:104AF00000F084FBD5E901122B69A24238BF1446AD
:104B0000121BAA601A19B2FBF1F303FB11212961F0
:104B100000F012FD2046B0BDF8B50C46054600F089
:104B20006DFBEA6895E8C2000132B2FBF6F303FBC5
:104B300016252944216000F0FFFC701BF11B814207
:104B400038BF0846F8BD0000002804BF00217047A8
:104B50004CBF404200464FF01F014CBF41F4406142
:104B600041F48061491E4000FCD34FEA015141EA03
:104B7000103100057047B0B50C68621C07D000F119
:104B80000802134652681568A542FAD901E0036984
:104B90005A689160C1E901230861596001680131D7
:104BA0000160B0BD70B5084A084B14689C4208D03B
:104BB00014680025CC2D03D066595E510435F9E701
:104BC000136043F8201070BD08ED00E00093002052
:104BD000F8B5D0E900060C46002700F14C05306816
:104BE000013C47F100018269D20606D429B1006870
:104BF000C1B22846FFF7E0F9F1E7F8BD10B50C4661
:104C0000080704D507480121006800F0EFF8A00765
:104C100058BF10BD034804210068BDE8104000F0F3
:104C2000E5B800BFF892002010B50C46080704D57F
:104C300007480221006800F0D9F8A00758BF10BD4E
:104C4000034808210068BDE8104000F0CFB800BF5D
:104C5000F89200200848816D21B908498A6A0AB98A
:104C6000CA6A0AB100207047426CC868411E012020
:104C70008A4208BF02207047B0010020880200204D
:104C8000806910F8020C022818BF704706480168B6
:104C900041F470010160D0F8AC1141F04041C0F81E
:104CA000AC11FFF72DBE00BF88ED00E0B0B5094D97
:104CB00004466869296A2044884207D100F02AFB2B
:104CC000E86A0130E86200F0DFFB013C68692044DB
:104CD0006861B0BD88020020BCB5034603200D46C4
:104CE000002100220090012000F05BF8044635B15D
:104CF0002CB12046002100220023FCF783FD204632
:104D0000BCBD0000074808490068C0B251F8200047
:104D100038B180B5D0E901108847BDE8804000F087
:104D2000BFBB704704ED00E000000020B0B50C46AA
:104D3000054600F063FAD4E9001200290B4608BFCB
:104D40002B46002A5A6008BF2A461160BDE8B040D1
:104D500000F0F2BB064801210172017001710548A3
:104D600000210160816004494160072101607047B2
:104D70009803002010E000E0FF760100F8B514462B
:104D80000D460646B06922462B4641193046FFF7CC
:104D9000FFFB28B1316AB769304688473D44F1E7E7
:104DA000F8BDBCB51C46002360B15CB101B94AB97D
:104DB00001B13AB1069B012584F84650009400F0F9
:104DC00057F923461846BCBDB0B5064804780648D6
:104DD0003CB1054655F80C1B09688847013C28463C
:104DE000F6E7B0BD4E5A0000045A0000E0B50022BC
:104DF0000192064A1268D20503D001AA00F042FCD3
:104E00008CBDBDE88C40FDF739BF00BF04ED00E06C
:104E1000B0B50C46054600F0F1F900212160696843
:104E20000029616008BF29460C606C60BDE8B04095
:104E300000F082BB50B14AB110B5044608300EC034
:104E400021460448FFF7E4FF002010BD6FF0020088
:104E5000704700BFD49200200A46002100F037BC02
:104E60001EF0040F0CBFEFF30880EFF30980044934
:104E7000084700BF00BF00BF00BF00BF00BF00BFAA
:104E8000814C0000B0B50546012000210322FFF748
:104E9000D9F8044635B12CB1204600210022002368
:104EA000FCF7B0FC2046B0BD10B500F01BFB04467B
:104EB000FCF704F918B104484FF080510160204616
:104EC000BDE8104000F0FCBB04ED00E0F8B51C4666
:104ED00015460E46074600F039FAF000B0FBF5F033
:104EE0000130C109C0F345007962B862FC62F8BDC7
:104EF000026C72B110B5D0E902431344C360A342FF
:104F0000BDE8104024BF0368C3600846194600F09E
:104F100081BC704706484168096819B14068C0689B
:104F2000006801E04FF0FF3002490862704700BF9F
:104F3000B0010020880200200138FDD17047000038
:104F400007480068006880F3088862B661B6BFF35E
:104F50004F8FBFF36F8F02DF00BF00BF00BF00BFE6
:104F600008ED00E080B52020FCF740FD58B100219D
:104F700002460160416001774FF0FF3142F80C1F9B
:104F8000C0E90422826080BDF8B501AF07C76FF0A9
:104F900001001A466946002300900348406BFDF764
:104FA000A9FE04B080BD00BF88020020F8B50C4601
:104FB000054600F023F995E8C2002D6929442160D7
:104FC00000F0BAFA701B874238BF3846F8BD68B1A6
:104FD00010B54FF47A7100FB01F400F006FC0146B5
:104FE000B4FBF0F0A14288BF012010BD0020704743
:104FF000B0B5054D04460120A8622020FFF712F944
:105000000248C4612C60B0BD20210240B0010020E4
:1050100010B5064C206B40F0050020630120FFF71F
:1050200005FD4FF400402060606010BD541000404A
:1050300006490968C90504D0E0B501A9FEF7A4FA3C
:105040008CBD002100220023FCF7DCBB04ED00E056
:1050500010B5044690F86100012803D038B9206BE0
:10506000FEF7F2FD2046BDE81040FEF7EDBD10BD95
:10507000B0B5049D00291C46C5E90F0108BF2A46AA
:10508000284601212A60FDF7BDFB85F84C40B0BDE4
:10509000CA07064A18BF10600B0748BF90608B070D
:1050A00048BF9061490748BF106270471C400C40E0
:1050B000CA07064A18BF10600B0748BF90608B07ED
:1050C00048BF9061490748BF1062704718400C40C4
:1050D000D0E9013201699A6053604B68834208BF8E
:1050E0004A600A68013A0A60002202610868704753
:1050F00010B50C46054909681831FFF73CFD2046FC
:105100000121BDE81040FDF7C3BB00BFB80300207C
:10511000B0B50C46054608B90448056800F0FAF831
:105120006C65BDE8B04000F0AFB900BFB803002027
:10513000B0B50023994208D00468A569AD0603D430
:10514000D55C01332560F5E719460846B0BD1CB5AE
:1051500004686479022C02D1FBF720FF1CBD049C7B
:10516000049402B0BDE81040FBF74FBB08B5B2F1A4
:10517000200327BF41FA03F0C9175B42D0403EBF6E
:1051800001FA03F31843114108BD000070B5054E44
:105190000C46054600F032F8C6E90054BDE8704000
:1051A00000F0CAB98803002070B5064620201446D6
:1051B0000D46FFF7D9FB31462A462346BDE870402D
:1051C000FEF764BF10B5054A40F61D448318A0429F
:1051D00038BF40EA0203196010BD00BF0050024012
:1051E000FF2807D0044A526852F820308B4218BF7B
:1051F00042F82010704700BFDC59000005480068E5
:10520000C00518BF00F06EB980B500F083F800202B
:1052100080BD00BF04ED00E0054B044A10280344A4
:1052200038BF831801F0F0001870704714ED00E0EB
:10523000F0E300E0012907D8044A526832F811303F
:1052400023EA000022F81100FEF7BABDA4030020F3
:10525000012906D8044A526832F81130184322F85E
:105260001100FEF7ADBD00BFA40300200548C068D3
:10527000400748BF704780B500BF00BF30BF00BFC8
:1052800000BF80BD580300200548816F01F0030175
:10529000012912BF01200068C0F34040704700BFE1
:1052A0004810004010B50446FFF7A8FF62680021CF
:1052B0002161013AC4E90212BDE8104000F03CB996
:1052C000042809D110B510461446FCF709F8204609
:1052D000FEF706FEBDE810400020704710B50446FA
:1052E0000238FEF739FF024908600248448010BDC9
:1052F0005C600040AC03002010B504460230FEF7AD
:105300002BFF024908600248048010BD586000402D
:10531000AC03002080B500F0E5F8044801680131D5
:105320000160BFF34F8FBFF36F8F80BDBC030020C0
:1053300010B5044608B904480468FFF7EBFF646D34
:1053400000F0A2F8204610BDB803002081690907CB
:10535000FCD4C16A40F2013221F01001C162016B3C
:1053600091430163704770B514460D460646FFF73A
:1053700045FFB561F461BDE8704000F0DDB810B5DF
:1053800044682068FDF7DAF8002020606068BDE816
:10539000104000F03ABA70B514460D460646FFF7C5
:1053A0002DFFC6E90154BDE8704000F0C5B800000B
:1053B00004490A6802EB00300A68000B60F30F3200
:1053C0000A6070471C11004010B5044C04F1040C35
:1053D000ACE80F000298207010BD00BFF40200205E
:1053E000006842F2D072816B914381634264016B29
:1053F00021F400710163704710B50446FFF78AFF7E
:10540000A06BB0FA80F0440900F03EF8204610BDD1
:105410000448016819B101680A6D01320A65006823
:10542000704700BFB8030020B0B50C460546FFF733
:10543000E5FEA96CA143A964BDE8B04000F07CB8CA
:10544000B0B50C460546FFF7D9FEA96C2143A96407
:10545000BDE8B04000F070B80449086880690A6887
:105460000968D26AC2F10A028A617047B803002053
:1054700010B50268436808619C6801324B608C601B
:1054800061600260996010BD0448016801390160E3
:10549000006800B17047002000F012B9BC03002082
:1054A00004484FF080510160BFF34F8FBFF36F8FFF
:1054B000704700BF04ED00E040B1BCB506AC056824
:1054C00001942D690094A847BDE8BC40704710B511
:1054D0000446FFF793FE0021C4E90011BDE8104027
:1054E00000F02AB8EFF311804FF0100181F311881A
:1054F000BFF34F8FBFF36F8F70470000FF2804D0BA
:10550000012101FA00F0014908607047743002403F
:10551000FF2803D0024A01F001018154704700BF07
:105520000031024010B504460068FFF72DF92068ED
:10553000BDE8104000F00AB803490968C90518BF62
:1055400000F0BEB8FFF7A0BF04ED00E00249034A37
:1055500041F82020704700BF00930020273500004D
:1055600008B903480068806D08B1FEF76DBB70474D
:10557000B80300200349486810B1497801B10047D9
:10558000704700BF5803002040B584B002AE0096BB
:10559000FEF7B4F8029A039B04B040BD70B503490E
:1055A00091E87C007CC0002070BD00BF6C590000F9
:1055B000B0B50446C543FFF79DF9A04288BF6542D8
:1055C0002844B0BD806843F6F77108404FF00101F0
:1055D00018BF01EB1010704730B101210022017299
:1055E0004FF0FF31C0E900217047E0B50020019085
:1055F000FFF778FF01980028FCD08CBD09680929C5
:1056000003D811B10160002070471620704740F2A6
:105610008000C0F2000000688546FEF763BE704758
:1056200010B500239A4208BF10BDCC5CC4540133AE
:10563000F8E7000070B5024991E87C007CC070BDBD
:1056400058590000024A0021C0E90012704700BF0B
:1056500000D8B80510B50023541E80E81E00C0E92C
:10566000043310BD00680121806900F0080081EA60
:10567000D000704780B5D0E905108847BDE880406C
:10568000FEF7C9B913460A4601460148FFF77CBC3C
:105690002158000080B50A46D0F803101046FFF7E5
:1056A000DBFB80BD1CB54FF0FF340094FFF74FFDCE
:1056B0001CBD0021425C0131002AFBD1481E70470D
:1056C00080F31188BFF34F8FBFF36F8F70470023B4
:1056D0009A4208BF7047C1540133F9E70B46D0F82E
:1056E0000320C11D184600F095B80000014A815002
:1056F000704700BF005002400149405C704700BF46
:1057000000360240EFF31180B0FA80F04009704794
:1057100001480168816070474C2000400148C06822
:10572000704700BF5803002001460148FFF7FEBA4A
:10573000D49200200068016B21F4807101637047EE
:105740000068016B41F480710163704701492422B4
:1057500000F060B88458000018B150F8080CFEF74B
:1057600073BA704701298EBF16200161002070476F
:1057700001480068FFF7DCBDB803002090F8461030
:1057800001B17047FEF760BA0021C0E900118160E5
:10579000704738713868511A00F029B80B46114625
:1057A0001A46FFF794BF016881F3088841688F4665
:1057B0006FF0010070474FF0804070470321017087
:1057C00070470022FDF7B2BD2846FFF7B5BE204660
:1057D000FDF706BD0120FFF70BB881600020704780
:1057E00000F00BF8FEE7FCF7F1B90120704781608B
:1057F0007047FFF7B7BB72B6FEE700BF7047FEF712
:1058000011BDFEF7DBBF80687047FFF7B7BFFAF73F
:105810009FBC0000FFF704BF01207047FDF778B977
:10582000FDF72CBA004003401B000000FF00000001
:10583000049200202000000024920020200000009C
:10584000000000000200000001000000FF00000056
:10585000FF000000200400203004002004000000AD
:105860000800000004000000040000000000000028
:10587000000000000200000806070000080C0000FD
:105880000C0C000000000000000000000000000000
:1058900000000000000000000100000000C2010044
:1058A00003000000000000008B2B00006544000096
:1058B000A3240000CF2500006D3A00007F530000B4
:1058C000B1570000B75700004C65667420427574EC
:1058D000746F6E203A205365636F6E646172792035
:1058E000496D6167652E003D3D3D3D3D3D3D3D3D82
:1058F0003D3D3D3D3D3D3D3D3D3D3D3D3D3D3D3DD8
:105900003D3D3D3D3D003D3D3D3D3D3D3D3D3D3D04
:105910003D3D3D20535342203D3D3D3D3D3D3D3DC0
:105920003D3D3D3D00526967687420427574746F57
:105930006E3A205072696D61727920496D616765B8
:105940002E005374617274696E67205365636F6EC5
:10595000646172792E2E2E0005000000D007000031
:10596000C8000000FF00000000000000010000006F
:105970000000000000040000000000000000000023
:105980000000000000C20100FFFFFFFF4084002074
:10599000000400005374617274696E67205072696C
:1059A0006D6172792E2E2E00303132333435363718
:1059B0003839616263646566000008020001000016
:1059C0000100000014010000010000007891002097
:1059D000BC5900009C910020C4590000CC0000205C
:1059E000C88F00203C900020FFFFFFFF1200000046
:1059F000FFFFFFFF0C04000000000000000000009B
:105A000000000000A8580000C0920020805900004B
:105A100000000000F113000000000000050505066D
:105A200001010109010B7800408C0020245800007E
:105A3000546D722053766300286E756C6C290000DB
:105A40000602868249444C4500000002020201031E
:105A50000000002114AE4700400608008006080040
:105A6000000400200020406009000000001C1A0112
:105A700000FD00000FB9010240046001047F002016
:105A8000022004600200F104003F010EF0800031AA
:105A900001BF0303B1037904F028047F0604F80072
:105AA0005F8303312D8F8301402D7F243A407FEAAD
:105AB000920020FF000000205700000F3B44AA0086
:105AC0000000FFF03D2F0000DD560000955600005D
:105AD00002000000100000000200000010000000A2
