:10000000009000205D2C00002F2D00002F2D0000FF
:100010002F2D00002F2D00002F2D00002F2D000070
:100020002F2D00002F2D00002F2D0000BF1D0000E0
:100030002F2D00002F2D0000F11F0000F1280000DF
:100040002F2D00002F2D00002F2D00002F2D000040
:100050002F2D00002F2D00002F2D00002F2D000030
:100060002F2D00002F2D00002F2D00002F2D000020
:100070002F2D00002F2D00002F2D00002F2D000010
:0C0080002F2D00002F2D00002F2D000060
:1000900086B0564F5448006A0668002E02D0C068E9
:1000A000046800E00024786A401C786202A801F02D
:1000B00039FF05460298002802D000F017FA8AE0BE
:1000C000002E03D0AC4211D9002204E04648406A19
:1000D000006842424241786B611B01F067FF00F00B
:1000E00005FA002877D102F003FD74E000F0FEF974
:1000F0002046294601F0BEFF6DE0029E002E3BD453
:10010000049C6069002802D0201D02F025FC01A893
:1001100001F008FF0546701E08285CD8800001A188
:10012000085887464901000049010000830100008A
:100130008F010000BF0100004901000049010000DB
:10014000830100008F0100002820215C01220A4366
:100150002254039EA069811920462A46334602F0A4
:1001600077F8002837D02046283001784A071CD479
:10017000FE22114001701EE0039A049805999047F1
:1001800029E02820215CFE220A40225423E0282076
:10019000215C01220A4322540398A06141192046A0
:1001A0002A462B4602F054F815E0A0698119204632
:1001B0002A4602F0DFFA216A204688470BE0282011
:1001C000205C810703D4204601F0CEFE03E02834F2
:1001D000FE2108402070786B02A9002200F0EAFAA4
:1001E00000288AD156E7C0463C290020142A002066
:1001F000F8B5044602F070FC3B4EF068401CF0601D
:100200003A4A1068002809D03069002844D11068A3
:10021000C06AE16A88423FD814603DE01460F0682B
:10022000012839D10021C843314AC8290AD05318BE
:100230001F4608375F609860DF601F6100235350DE
:100240001431F2E72B490A4608324A608860CA60D6
:100250000A6100220A600F461C370B4614338F6177
:10026000C8610F624F624A61234F3D466035FD65AC
:1002700038667D66BD66BA653D4638357D63B863D0
:10028000FD633D643A633D464C35BD64F8643D65AD
:100290007D657A647960BB607068401C70606064E2
:1002A000E06AB169884200D9B06114214143104825
:1002B00042185368251DA3609F68E7609F687D60B2
:1002C0009D6062614258521C425002F071FC3069DC
:1002D000002807D005480068C06AE16A884201D258
:1002E00002F006FCF8BDC046142A0020842B002032
:1002F00040250020A82900203C290020FEB53A4CCA
:10030000606A002804D0E06A401CE0620020FEBD64
:100310006069451C656109D3344841688268426060
:100320008160206B401C206302F0D0FA206A854275
:1003300001D2002052E000202C4A0090019002954A
:100340002B4B51680968002944D05168C968CF68AF
:1003500079688D4240D3391D7E69B868FA68826039
:10036000FA6850607068884200D172603068401E40
:100370003060BE6A002E0FD038461830FD693A6AE8
:10038000AA603A6A55607568854200D172600020A3
:10039000B8623068401E3060FE6AA069864200D9AB
:1003A000A661142070431A185568BD60AC68FC60E3
:1003B000AC686160A9607A611958491C19500D48F0
:1003C0000068C06A864201D901200190029D074A57
:1003D000054CB6E70098C14321620198A16A002943
:1003E00095D00120FEBDC046142A00203C290020E3
:1003F00040250020842B0020FEB502F01FFA0446A1
:1004000001F0C8FF00285FD002F060FC0425054021
:10041000800726D402F0B2F8002855D001942C4C65
:100420002C4A2D4801681068029000291ED00095C2
:1004300048320023DE43052B16D00846D840C007BB
:100440000CD01068254DED5C029FAF40C01BA04250
:1004500000D90020E840864200D306465B1C121DEE
:10046000E9E7002D2ED02FE03446009D1C48826D18
:100470007D21C90051438C4200D30C46FF21F63147
:100480008C421CD3416A491C4162164DAE68029FE2
:10049000E01900F069FC6E600E480068C01B02F0B5
:1004A00041F902F0D9F80020A8602868052101432D
:1004B00029600D48686000F019F8019C04E0002DE7
:1004C000019C01D102F0B2FB204602F0B5FAFEBD5C
:1004D000FFFFBFFF0421024044200240992D00008D
:1004E000142A002010E000E07FBB0000F8B502F005
:1004F000F3FA374D686A401E6862686A0024002873
:1005000003D002F055FB2046F8BDE8680028F8D07B
:100510000021304A946D002C40D0516EC9680F46BE
:1005200018378C6ACB690E6A9E600E6A73606368C6
:10053000BB4200D1666000238B6223685B1E236090
:100540000C1D4E698B68CF689F60CF687B607368B5
:10055000A34200D1776033685B1E3360CE6AAB691B
:100560009E4200D9AE61142373431B48C7187868B4
:1005700088602A468568CD6085686C601546846011
:100580004F61154AD058401CD05014480068C06ACA
:100590008642104ABED30120A862BBE7002901D0E1
:1005A00002F094F9EC6A002C09D0FFF7A7FE0028AE
:1005B00001D00120A862641EF7D10020E862A86A79
:1005C000002803D002F094FA01249AE7002498E767
:1005D000142A00203C29002040250020842B0020E4
:1005E000F8B52C480178002951D1012606702A4916
:1005F0004A68531E14469C41447089684260816079
:1006000026482030264A132500242946234600F098
:100610004DFE41200001032102F04CFBF703384658
:100620000A3020490860284602F065FB1E481F4A30
:100630002021234600F03AFE1D48066086601D48D2
:1006400006601D48C1681D4A0A40C26001680F2249
:1006500012039143C919016002F067FB01467D2036
:10066000800001F0E7FC0246154D16492846234656
:1006700001F0A6FB00F042FF284600F0E5FF094A22
:10068000D06CF1070143D1640F48102101600020B4
:10069000F8BDC046442B0020802D0000E82A002031
:1006A000990800005810004000280020C12C0000CC
:1006B00058200040602002401C11004000F0FFFF65
:1006C000A0270020091E000000580040F0B587B0A8
:1006D0000393019104460646443606921030029078
:1006E000012502F0F9F9A06BE16B884242D303982F
:1006F00002283FD00698002850D0E80704D02C49A3
:10070000086B04904869059002F052FA2849486A3B
:10071000401C486202F0E0F93078FF2801D1002047
:1007200030707078FF2801D10020707002F040FA1C
:1007300004A806A901F0F8FA002832D102F0CCF999
:10074000A56BE76B02F034FABD420DD10699029811
:1007500002F09CF902F0EDFAFFF7C8FE0025002830
:10076000BFD102F0C5F9BCE702F0E3FAFFF7BEFE25
:100770000025B6E720460199039A00F00FFE616A52
:10078000002903D02434204600F03EFA002801D08E
:1007900002F0AEF902F00CFA012007E002F008FACC
:1007A00003E002F0C6FAFFF7A1FE002007B0F0BD9B
:1007B000142A0020F0B585B0009104460546443562
:1007C000049224300190012702F086F9A66B002ED6
:1007D00047D10498002857D0F80704D02D49086B5A
:1007E00002904869039002F0E3F92A49486A401CE4
:1007F000486202F071F92878FF2801D100202870A2
:100800006878FF2801D10020687002F0D1F902A8B1
:1008100004A901F089FA00280AD002F08AFAFFF749
:1008200065FE204602F086F900270028CCD02EE095
:10083000204602F07FF900280DD00499019802F0BB
:1008400025F902F076FAFFF751FE00270028BBD108
:1008500002F04EF9B8E702F06CFAFFF747FE002706
:10086000B2E72046009902F055F8701EA063206997
:100870000127002809D01034204600F0C5F90028CF
:1008800003D002F035F900E0002702F091F9384674
:1008900005B0F0BD142A0020F8B5304C01200090BE
:1008A0002568A560256128041BD500984004A06038
:1008B0002B4F384600F092FF00263846314632462C
:1008C00002F022F927486065274FB868002802D057
:1008D0008047BE6005E0082001F028FD012001F0FE
:1008E0003FFD224E0A272F4011D0009AD003A16B62
:1008F0009143A163616D314061651D490A680F2311
:100900001B039A4302430A6000F0F8FDE7602807E2
:100910000CD501F093FFA16D3140A165A16D721C52
:100920000A43A26502F088F80820E0600E4E3169A3
:10093000002912D02846884700280ED000203061B8
:10094000009D65660B48016804220A43026010207E
:1009500001F0ECFC284601F003FDF8BD4C1000400E
:10096000A027002011000380442B0020FFFFFF7F01
:100970001C1100402C000040F8B5344D696A491C38
:100980006962E96B00291FD1314B07211F460F40D7
:10099000DE1DCA431640002F314600D119462D4BAB
:1009A000002412C301235B03002F02D0284FBE1B7B
:1009B000F318CB18083B1340EB631C605C605A1AB9
:1009C0000B604A606A642A640027002839D0072136
:1009D00001400A46113A824233D3411A10310129AB
:1009E0002FDB2A6C91422CD800971A4F3E68344670
:1009F0003B467068884203D22668002E2746F6D10F
:100A0000EE6BB442009F1CD01F6826681E60431A1C
:100A1000112B06D360184360616001F061FA6068D1
:100A20002A6C111A29646A6C914200D269640837F1
:100A30000121C9070843002121606060A86C401CA7
:100A4000A864FFF753FD3846F8BDC046142A0020BD
:100A50000000002024280020F0B587B001F0EEFE51
:100A600029490A78012A02D101F0E6FF49E0012272
:100A700003920A7001F0E0FF0024204600F03AFFE4
:100A800004AD284602F0CAF8214EF06805902148CE
:100A9000214A15212B4600F009FC20480078204906
:100AA00009788200204F02940191884224D833684B
:100AB0009B58002B1DD49D0710D4039D85402C43CB
:100AC000C5B2FF2D12D01E46039F3E400F4F7D1929
:100AD000BC27EE55144F0E4E019907E05D0705D572
:100AE000039D8540029F2F4302970F4F0D4D2B40D2
:100AF000D351401C121DD8E70C48046003480299EA
:100B0000016007B0F0BDC0467D2B0020443002409C
:100B1000642D0000E4270020A9210000AC2D000076
:100B2000AD2D0000F8FFFF7F00310040003502408E
:100B3000F0B585B004460029049302D00F4616464E
:100B400001E016462C4F3420FFF716FF0C23002837
:100B50004FD0054603943869411E02468A412A74E3
:100B60000024EC60AC606E610499A961EC612C62B8
:100B700039686960AC62EC622C63002808D10120FE
:100B8000002103221E4600F091FFA86000282CD00F
:100B90001A480669002E03D0416A416A491C416225
:100BA00038898208386800900195154815492B4608
:100BB00000F0B0FD012806D12868294601F0FEFEAC
:100BC00000232C4608E0A868002801D002F003F8B2
:100BD000284601F0C9F90C2303980460002E08D0C0
:100BE0001C46FFF783FC234603E0284601F0BCF9CE
:100BF0003346184605B0F0BD502D0000142A0020E1
:100C00008B2C00009E2D0000F8B5C068C5682846F2
:100C10001830A96AEB692A6A9A602A6A53604B689D
:100C2000834200D14A600024AC620A68521E0A6006
:100C3000204F796A00290ED01F490A465832CB6DE1
:100C4000EB619E682E629E6870609860AA62886DF3
:100C5000401C886524E0281D6969AB68EA689A60D1
:100C6000EA6853604B68834200D14A600A68521EAA
:100C70000A60E96ABA69914200D9B96114224A430B
:100C80000E498B185F68AF60BE68EE60BE6870602A
:100C9000B860084F6B618858401C885001F016FE00
:100CA000E86A07490968C96A884201D90124BC6217
:100CB0002046F8BD142A00203C29002040250020B1
:100CC000842B0020F8B5014600040DD40122C8058C
:100CD0000FD40020890306D51E498B6E0A2B30D114
:100CE000204848641046F8BD184801F02FFD002048
:100CF000F8BD174B1749986800281CD4174F184C9B
:100D0000256820607E1B01DC134EAE19952E12DC87
:100D10003E1A01D8104E8619952E0CDC401BC517C3
:100D20006840401B952806D8081F520402600A60DC
:100D300000202060F8BD1402002018601A600C60CA
:100D4000F8BD52040A238B660A60F8BD0202000057
:100D50000012004058100040A01CE9FF60E316009C
:100D6000802B002080841E80F0B589B00190214F37
:100D7000214A224801680125A943016010680390B7
:100D8000386C029004A81E49142201F0B9FF1D48D6
:100D9000042101F08FFF2026304601F0A8FF3868BB
:100DA000194CA169019A101AB938C0084018A062FC
:100DB00000F0DCFB0190E56065652068304601F0DD
:100DC00096FF1B210F4801F075FFF86B0128FCD13D
:100DD0000B4804A9142201F093FF029838640648D6
:100DE0000399016000F02EFF042001F09FFA0198A2
:100DF00009B0F0BD042102404420024010E000E0B0
:100E00004C2102404404000000200040F8B5044694
:100E100001F062FE002C01D11D480468251D284602
:100E200001F09AFDA06A002803D02046183001F096
:100E300093FD184F7868401C7860154E30688442E6
:100E400008D0F868401EF860204601F011FE01F05D
:100E50003DFD0AE010483030294601F031FEB86807
:100E6000401CB860204601F003FE01F0A1FE30688E
:100E7000844202D0204601F0C1FD3869002802D02A
:100E80003068844200D0F8BD01F032FEF8BDC046A3
:100E9000842B0020142A00203C29002070B5044631
:100EA00001F01AFE002C01D11D480468251D2846BA
:100EB00001F052FDA06A002803D02046183001F04E
:100EC0004BFD184E30464430294601F0F9FD6020B4
:100ED000205C012803D1204660300021017001F020
:100EE00067FE114D2869002805D001F0F5FD01F0DD
:100EF000EDFC01F05DFE0A4801688C4200D070BD37
:100F00002969002902D001F0F3FD70BD716CEA6817
:100F1000914202D10021016070BD00F0D1F870BD96
:100F2000842B00203C290020142A0020F8B500263C
:100F3000002841D00446C06B00283DD00D46226CED
:100F400000263146334601F09DFC481E814133D1D5
:100F50002646443601F0C0FD2168E06B226C431E3A
:100F600050430F180020A0635343CA186160A76064
:100F7000E260FF2131707170002D0FD021461831D1
:100F8000C2436161A261E1612162206121462C318D
:100F9000A162E2622163616360620AE0103420684A
:100FA000002806D02046FFF72FFE002801D001F0D0
:100FB0009FFD01F0FDFD01263046F8BDB0B50029CA
:100FC00028D00C460546400819490140681A1949BD
:100FD000820808400A40801801094018164901405B
:100FE00016484843000E022814D2082D00D80825C0
:100FF00008346019FFF7C0FC00280FD001466A1EB4
:1010000028180A4210D06A421040083888420CD290
:1010100028180AE000F03CFE162102E000F038FE3D
:101020000C2101600020B0BD083812C00030B0BDF6
:1010300055555555333333330F0F0F0F0101010150
:10104000F8B50D4604461B4847691B4E3068001D25
:1010500001F082FC601C17D1002D15D01748014605
:101060004431826C33689A6093683468E360336813
:101070001B1D9468636033681B1D93603268516167
:10108000416C491C4164F8BD3C19306844600B4810
:1010900005D380683168091D01F02CFAF8BD40685D
:1010A0003168091D01F026FA0249086A844200D21B
:1010B0000C62F8BD142A0020842B00203C2900205B
:1010C000B0B51B4C606A002802D00120A062B0BD00
:1010D00018480021A162184D2968096B0A688242EC
:1010E00008D14A68824205D18A68824202D1C96821
:1010F000814204D028682968343100F0A2FDA0693B
:10110000142141430D4A5118401C0A681439401EED
:10111000002AFAD08A6952688A610B461C339342CE
:1011200001D152688A61D1682960A061B0BDC04612
:10113000142A0020A5A5A5A5842B00204025002069
:10114000F8B516480078002827D115480768154DCE
:1011500001262E6000248460EE6013481349224665
:1011600001F0DDFC12481B2101F0A4FD6E60114D61
:101170002846283001F0FEFCAF610F483818E861BE
:101180006C70AC700548067001F058FB0446E869C5
:1011900001F0F4FB204601F04FFCF8BD432B00208A
:1011A000042102405420024000280020BD1100000C
:1011B000440400003C290020FFFFBFFFF8B50126D2
:1011C0001848066001F03AFB17490968174A56703B
:1011D00000259570D4690F1B01F02EFCAF4207D398
:1011E0002C197F1B3046214600F028FB0546F5E709
:1011F00001F024FB06460D4FB878012804D10020E9
:10120000214600F01BFB05460948854200D30546F0
:10121000281901F0B3FB00207870BC61304601F062
:101220000BFCF8BD54200240042102403C29002060
:10123000FFFFBFFFFEB500291ED403460020FF2B91
:101240001CD01546154A164E02240C4002940CD1AF
:1012500001240A462240F718019700959C25019F1A
:101260007A550E4A009D9C4014609C0001279F40C7
:101270004B0705D4103605E00020FEBDC043FEBD7F
:10128000376008363760074B19402943064BE15059
:101290000299002900D01761FEBDC04610350240FA
:1012A00064300240F8FFFF7F003100407FB5044604
:1012B0000020002C2DD01E460D46002B0AD0716850
:1012C000CBB2FF2B0DD0144B1B6DAB420BD0C02902
:1012D0001FD008E000200190C043029001AE012021
:1012E000307280207060A8000C490C506260306839
:1012F000A06025600A49284601F014F93179284692
:1013000000F0D6F9307A002802D0284601F0F6F92C
:10131000204604B070BDC046142A0020402800209A
:10132000AD260000F0B5441C00780023082B30D017
:101330002578C6070FD166782D0137097F190F254B
:101340003540ED1C122D0BD102256657F5B2002E4B
:1013500008D4E61C0CE0641C4E1C0D70314615E0F0
:10136000A61C06E0261DE4787F221540E2015519EF
:101370001235094A97420ED0FC43002D05D00A5D74
:101380004F1C0A706D1E3946F7E7344640085B1C57
:10139000CCE72046C7E7F0BDFF0F000070B515464B
:1013A0000446866B026C002A18D0002D1DD0E06820
:1013B00001F0A6FC206CE168091AE1602268914204
:1013C00003D24042A1680818E060A81E4142414192
:1013D000701E324682410A40B61A02E02068002898
:1013E00011D00020711CA16370BD606801F088FC01
:1013F000206C616809186160A26800209142F1D3F5
:1014000021686160EEE7A06800F0B6F90021A160F4
:10141000E8E77047F8B504460546443501F05CFB43
:1014200000956E7825462435164F70B201280BDBE7
:101430002868002808D02846FFF7E6FB002801D0DE
:101440000120B862761EF0E7FF25009E757001F05E
:10145000AFFB01F041FB3678103470B201280BDB92
:101460002068002808D02046FFF7CEFB002801D0D6
:101470000120B862761EF0E70098057001F098FB35
:10148000F8BDC046142A0020FEB502930E46019016
:101490000A9C089D206B9700A522394601F0EEFBBF
:1014A000206B3818001F072188432064002E0DD0C0
:1014B0003421402907D07218343A137863541278D3
:1014C000491C002AF5D13F2100226254099E092DB2
:1014D00000D30925E56400210A22521B24616161C1
:1014E000A2616462A162E5620199029A01F056F973
:1014F0002060002E00D03460FEBD704770B5164DE0
:10150000E86BC0071FD1154C2C66154E3168422080
:101510008847201D28661348A8653168062088473B
:101520004020E860A96D01200143A965A96D8143B0
:10153000A96529684906FCD5A96D0B4A0A40AA6528
:10154000E96B0143E9630124204601F02DF8E00333
:10155000E860286170BDC046481000400D00008062
:101560009400000F00000380FFFFFE7F70B501258F
:10157000284600F0DBFE0446002820D1124E00F081
:1015800067FC002804D001F009FA3068A8433060F5
:10159000F0690E490840F061706A084070620020EE
:1015A0007062EFF314810A4D296080F314880949B1
:1015B00009688847286880F31488FFF79FFF06486A
:1015C00000218170204670BD84100040FFFFFF7F26
:1015D000342800204C00000F442B00207CB501F083
:1015E0007BFA144C606B002820D11348034630333B
:1015F000024628320021CD43C362056343638363FF
:1016000081620346443306463C3603644564836482
:10161000C364C1630948026246620091084B2033EB
:10162000084A1420102100F04BFE606301F0C0FA5C
:101630007CBDC046142A0020A82900203C29002097
:10164000CC2800200024002070B50546164E01F07D
:10165000F5F8044615494A783068002A06D0AA6889
:101660001018E86001202875887018E08A69831ACC
:10167000CA698969511A8B4206D93068A968081865
:10168000E860012028750AE0A9680B18EB600123C7
:101690002B75101A814202D2E86801F06FF92046DA
:1016A00001F0CAF970BDC046042102403C29002067
:1016B000FEB50D4604460F20C043102C00D2083062
:1016C0000719102C01D3124800E010480290A0071F
:1016D000C00E0190FF268640204600F0DBFE009001
:1016E000204600F0F7FF03208743029AD059B04309
:1016F000C0210D4001998D400543D5510098002827
:1017000002D0204600F0FAFFFEBDC0461CED00E00E
:1017100000E400E0F0B587B01F461546069105903D
:101720000020C4439000FFF727F9002821D0064687
:1017300004976420FFF720F9002817D007460D987A
:1017400003900C9C6421384601F0C6FA3E63009475
:10175000039801900297059806992A46049BFFF783
:1017600093FE3846FEF744FD012402E0304600F0C7
:10177000FBFB204607B0F0BD70B504460020002CEE
:1017800026D0216D491E2165E26AE36C9A421FD082
:1017900000291DD1251D284601F0DEF8E06CE0622D
:1017A0000A21091AA1610B498A69904200D988610E
:1017B00014214143084842185368A3609E68E660BC
:1017C0009E6875609D6062614258521C42500120C3
:1017D00070BDC046142A00204025002070B5054683
:1017E00001F02CF8044600202875114E707801286D
:1017F00002D10120B07017E0E868F169884213D186
:101800000C490D68B169691AB269801A81420BD21C
:101810000020294600F012F80749884200D3084604
:10182000401901F0ABF8B561204601F005F970BD33
:101830003C29002004210240FFFFBFFFF8B50C4601
:101840000546144F283700200090C6433F68002FFC
:101850001DD0397D0029F9D0002D0ED0F968A142A4
:101860000BD13969F869002903D0FA685118F96079
:1018700001E000993975B9698847397D0029E5D0BB
:10188000F968091BB14200D331460E46DEE7304607
:10189000F8BDC0463C290020144D154EA86800280C
:1018A00012D001F019F9F06BC468201D01F054F852
:1018B000E868401EE860A868401EA86001F078F95A
:1018C000204601F09BF8E9E700F07EFD0228E5D311
:1018D000686A401C686200F077FD022802D3A865A0
:1018E00001F0E2F8FEF702FED8E7C046142A002015
:1018F0003C29002070B5054600F0A0FF04462846AC
:1019000000F0E0FD0646401CC1B2284600F020FE73
:10191000300604D0204601F08FF8002070BDFF2073
:101920000102294001200202914206D00029F1D192
:10193000E9B2884004490860ECE7E9B2884080B227
:10194000002101F087F8E5E714000240010C4A424B
:101950004A41110110224A40D040FF2212020240A7
:1019600053425341DA0008235340D8405118F02223
:101970000240534253419A0004235340D8408918EF
:101980000C220240534253415A00022389185A4004
:10199000D0401A1A40080123DB430343581C10406F
:1019A00008187047F0B587B000F06CFE01AC204617
:1019B00001F0EAF8012500956946204601F0EEF8AD
:1019C00006462046294601F067F907463743A90233
:1019D000204601F0A4F9384300D0FEE7064A06A8E5
:1019E00001A90023FFF7A4F8002800D0FEE700F0CB
:1019F00031F8002007B0F0BD2D260000B0B5054637
:101A000001F024F90446456201F020F90121C16189
:101A1000A06A002806D0016802698A62416880686D
:101A20008847F5E7204600F059F9207C002806D0C9
:101A3000204600F099FA0020FFF7E8F9B0BDA06851
:101A40000024214622462346FEF740FE2046FFF7AB
:101A500025FAB0BDBFB50F4802900F480190002491
:101A600000940E480E498022234600F075F80D4D73
:101A7000E86100280BD000F00FFA012807D172B6F8
:101A8000E0432862012028616C6100F0FDFB0648FC
:101A90000068BFBDD8260020002000209918000053
:101AA000942D0000142A0020A82D0000FEB5002867
:101AB00025D014460D460646002739462A463B46A1
:101AC00000F0E0FE481E81411AD1304668435021A3
:101AD000C943884214D802945030FEF74DFF0028C5
:101AE0000ED0044602465032462000212154009474
:101AF00030462946029B00F01EFF274600E00027E3
:101B00003846FEBDF8B500F0F7FB0F4F791C0F4CBF
:101B100006200090A047122528463946A0470D26EA
:101B200030463946A0470C2709493846A047B92016
:101B300000F061F8074C0098A0472846A0473046BF
:101B4000A0473846A047F8BD00040020E52C00005F
:101B50000220046065240000F0B587B004460D9DA6
:101B60000020002D1ED00E9F002F1BD00E460C987B
:101B70000590642138460493039201F0ADF83D636B
:101B8000612002213954029706A80190059800901F
:101B900020463146039A049BFFF776FC3846FEF751
:101BA00027FB069807B0F0BD70B50E46002816D08A
:101BB000002E19D00546304600F02EFB002817D025
:101BC0000446281F0268083AB24200D33246204633
:101BD000294601F095F8284601F030F809E0304632
:101BE00000F01AFB044604E000F052F816210160F0
:101BF0000024204670BD70B504460620002100F088
:101C0000AFFF08261220002100F0AAFF002E0FD0FF
:101C1000761E2146F140012529400D2000F0A0FF4D
:101C20001220294600F09CFF082001F075F8E9E732
:101C30000620012100F094FFAF20800001F06CF835
:101C400070BDFEE70F4802680F490B8849881943A9
:101C500092070BD4002910D00222826002689207FA
:101C6000FCD50120814309480160704701220B46E1
:101C70009343064A1360002900D070470221416156
:101C80007047C0460C00024038280020040008407D
:101C9000B0B50F4801690F4D002915D0406A0E4CB0
:101CA0002068002800D12068816D00290DD1042012
:101CB000FEF762FE0028294607D02168002900D1DE
:101CC00021688865014600E029460846B0BDC04647
:101CD000142A00203C280020842B0020B0B50446A4
:101CE0001048416A491C4162E06A002817D0016827
:101CF000E16205696968002901D02A680A602A68DA
:101D0000002A00D0516081680968002903D0C068AA
:101D1000002800D08847284600F026F9E4E7FEF7BF
:101D2000E5FBB0BD142A0020F8B50D46064600F0CC
:101D3000D3FE0F484269296800244B1C14D0376831
:101D40007368006BB84201D09A420AD2D21A91420B
:101D500007D9881A28600649086B306048697060A6
:101D600002E000202860012400F022FF2046F8BD98
:101D7000142A002070B500280FD00A4600242146FE
:101D8000234600F07FFD0546481E814101290AD106
:101D9000FFF77EFF8B2101600FE0FFF779FF16212F
:101DA0000160002409E0284600F036FA002804D03B
:101DB0000646294600F090FF3446204670BD704725
:101DC000B0B50446002818D01D46002B00D10C4D9C
:101DD00068682061A260A161A868E06100202075A8
:101DE000FFF7AEF907482830214600F039FD287882
:101DF000002802D02046FFF727FC2046B0BDC04691
:101E0000742D00003C290020F8B50F4C0F277D06EB
:101E10000520460600F012FD216D2940B14210D187
:101E2000E26F39038A430121CB03D218E267074AE4
:101E30002260226D2A40B242FBD02268C9078A4341
:101E4000226000F0F9FDF8BDA010004012000180F2
:101E5000B0B5104801687F230B40C90BFE240C402D
:101E6000E11A00229C4200D21146406B0004030F8D
:101E700001201029044600D81446032B054600D83B
:101E800015462C406242082B00D310460A2900D385
:101E90001046B0BDE81000401FB5FFF79FFB0B4C8C
:101EA000606B00280FD00A4802900A480190052074
:101EB00000900948094980220023FFF74DFEA063E6
:101EC000411E884100E0002004B010BD142A00200B
:101ED0003C27002000220020910000008C2D0000F3
:101EE000B0B50E4A114612688242FBD34C680D19F8
:101EF0004368854202D11B194B600846C4189442BE
:101F000007D1074CE46BA24203D05468E318436046
:101F100012680260814200D00860B0BD2428002011
:101F2000142A0020F8B505460D4E7469B06E84423F
:101F30000BD20C4F386A0168002908D0C0680068CD
:101F40000021C94300F096F8F4E7002003E0796A25
:101F50003962786201202860B4662046F8BDC04628
:101F6000142A00203C29002010B5002803D0011FAE
:101F70000A68002A00D410BD08380368002BFAD183
:101F80000123DB079A430A60074C626A521C6262B3
:101F90000968226C51182164FFF7A2FFE06C401C15
:101FA000E064FEF7A3FA10BD142A0020F8B5154628
:101FB0000E4604460746443700F08EFD4420205C60
:101FC000FF2801D1002038707878FF2801D1002047
:101FD000787000F0EDFDA06B002805D1204624307C
:101FE00031462A4600F066F82046FFF713FAF8BD9E
:101FF000EFF309800E4B1A6820381060F0C0444699
:102000004D4656465F46F0C008B572B6FFF758F821
:1020100062B60CBC116808681030F0C8A046A9462A
:10202000B246BB4680F309882038F0C81847C0463E
:10203000842B00201CB50A0017D000230124E407DC
:10204000A04200D20400944201D95200FBE7904222
:102050005B41904200D3801A914201D25208F6E7C8
:1020600019000200080011001CBD01000020FFF74C
:1020700044FA1CBD70B50D4606460D48006AC0689E
:10208000C468201D00F068FC2820205C410705D4AE
:1020900021462831FE221040087004E020463146D7
:1020A0002A4600F067FB216A2046884770BDC0467B
:1020B0003C29002070B543680D4C2568EB619D6894
:1020C00026683562256818359E687560256818355C
:1020D0009D602368986203685B1C0360002A01D03E
:1020E0000020C14308461146FEF7AAFF70BDC04656
:1020F000842B0020B0B50A4D0120E86409490A4A42
:102100000A6100F051FA00F099FB044628680004C7
:1021100002D4064800F01AFB204600F08DFCB0BD4A
:1021200044100040442B0020C50C000002020000B7
:1021300070B50A480A4C84420CD00A4D0A4EB5428A
:1021400008D02A686968501C12789200A2589047FB
:102150000835F4E700BF00BF70BDC046E82D0000A1
:10216000DC2D0000F02D0000002E0000FCB4020C5D
:102170000B0CFF242402FF34204021400C00444378
:1021800015005D4306005E430F005743320C3B0CC5
:10219000A818C01832043B040025A1186841C918CA
:1021A0006841FCBC70470000B0B50B48046804618E
:1021B0000A4D002C0FD02046FFF7C8FB1F214140DD
:1021C00001208840844368688A008258002AF0D041
:1021D000C8B29047EDE7B0BD54300240642D000016
:1021E0000F2806D00E280BD1094801680122D2061B
:1021F00003E007480168012252060A430260704763
:1022000010381F2803D8012181400248016070471F
:1022100004ED00E080E200E010B5002804D00446A0
:102220000720C043844205D3FFF732FD1621016029
:10223000002010BD08342046FEF79EFB002803D086
:1022400000604460083010BDFFF722FD0C21EEE76E
:1022500010B541600061914206D90A4C20349A427F
:1022600008D2994206D30BE0D11A8269914207D273
:10227000044C2434011D206800F03CF9002010BDFE
:10228000012010BD3C29002010B50B480168FF2239
:1022900013040B430360016812060A43026000F056
:1022A00091FA06480024046000F0C2F8FEF708FF27
:1022B00000F088FC204610BD20ED00E0882B0020B7
:1022C0007CB505460020002D06D01C46002B03D00F
:1022D000002902D1002A00D07CBD002901D0002AAB
:1022E000FAD0069B4620012626540094284600F08A
:1022F00022FB20467CBD0000B0B506240A492046DA
:1023000000F0F0FC0021204600F02AFC01252846C0
:1023100000F002FD2046294600F022FC23200001A7
:1023200000F0FAFCB0BDC04601040020F8B5054637
:102330000A4807680024002F0DD0B868284207D04B
:10234000FB683A690026284631469847002801D1A3
:102350003F68F0E7F4432046F8BDC0461C28002043
:1023600010B5044600F06AFA08490A5D521E0A5583
:10237000095D002905D10121A140054AD3688B439D
:10238000D36000F059FB002010BDC0462C2800206F
:10239000442B00200A498A6D0020002A00D0704793
:1023A000084A936A002BFAD1D36A002BF7D1486C04
:1023B000D168491E884201D0012070470220704731
:1023C0003C290020142A002009498A69094800682C
:1023D000C36A0020002B00D07047074B1B68012BFD
:1023E000FAD8002AF8D1086A4969401A7047C046ED
:1023F000142A0020842B00204025002080B50A49A3
:10240000884206D3FFF744FC162101600020C04338
:1024100080BD064940187D21C900FFF70BFE401C16
:1024200000F0E4F9002080BD40420F00E703000007
:102430000B4A13681868203080F30988022080F363
:102440001488BFF36F8F3FBCAE4608BC04BC62B6B5
:102450001847C046C046C046C046C046C046C046F3
:10246000842B0020F8B5FF2810D0044600F06EFB46
:10247000074E3068A700C159204600F033FC002504
:102480002046294600F0CAFAB068C551F8BDC046DA
:10249000642D00000F2805D1094800680221014081
:1024A0004808704710381F2805D804490968C140FA
:1024B00001200840704700207047C04600E100E05E
:1024C00010E000E0FF2109020140012213029942BD
:1024D00006D000290AD1C0B2054908183C3003E0F3
:1024E000C0B203490818143000787047D0437047D1
:1024F000E82A0020B0B50C68621C07D002460832FA
:10250000134652681568A542FAD901E003695A6872
:102510004A6091608B60596008610168491C0160E4
:10252000B0BD000070B5084B1C68084A944208D042
:102530001C6800258C2D03D0665956512D1DF9E7D6
:102540001A608000115070BD08ED00E0002C0020E2
:10255000FF221202024001231B029A4206D0002AE7
:1025600009D1C0B2044A10183C3003E0C0B2024A9C
:102570001018143001707047E82A00200848816F55
:1025800003220A40012A09D106490968490E006858
:10259000012252040240500C08407047012070474D
:1025A00048100040E010004010B5044600F046F925
:1025B0000121A140054AD3680B43D36004490A5D59
:1025C000521C0A5500F038FA002010BD442B0020A0
:1025D0002C28002006484178032900D88030007854
:1025E000FD2804D303480449016004494160704751
:1025F0002F03004E18110040E3887F09E3387F491C
:1026000082B0084901910090FFE701980099884243
:1026100006D2FFE70198011D019103490160F4E72B
:1026200002B0704700880020A5A5A5A5FEF714FA02
:10263000012461070E25284600F054FB2846214658
:1026400000F08EFA034C2046FFF7D8FE0E2000F073
:10265000DDFAF8E720A10700B0B50446084D686927
:102660000019296A884207D100F036FAE86A401C4E
:10267000E86200F09DFA641E686900196861B0BDE7
:10268000142A002080B5FDF7ABFFFFF733FD0648A5
:10269000016801220A430260FEF7DEF9FFF732FA11
:1026A000FEF7B7FE80BDC0461400004080B5074865
:1026B0000068C0B2800006490858002804D041686C
:1026C0008068884700F014FA80BDC04604ED00E041
:1026D000402800200F2804D10748016802229143B6
:1026E00005E010381F2803D801218140014801600E
:1026F0007047C04680E100E010E000E00F2805D1FF
:102700000748016802220A430260704710381F28F8
:1027100003D80121814001480160704700E100E0D9
:1027200010E000E0010C074A13464B4380B25043CF
:10273000054A4A438018C009DE30400AC018400AE2
:102740007047C04612830000986E00000749086178
:102750000120C861064A106743028B6100230B60A9
:1027600003021360086053607047C04600120040C7
:102770005410004070B514460D460646B069411924
:10278000304622462B46FFF763FD002805D0B0698E
:102790004519316A30468847F0E770BD10B5031F10
:1027A000012424061C600346083B196001460C39CD
:1027B000034B0B60014620390A60403810BDC0460B
:1027C000C52B000006480121017001710172054806
:1027D0000021016081600449416007210160704768
:1027E000742B002010E000E07FBB000080B50028C3
:1027F0000BD007494A6A521C4A620021FEF720FCAE
:10280000FDF774FE002800D080BD00F071F980BD96
:10281000142A0020084880F3088800BF00BF00F099
:1028200093FA002801D0FFF783FC0020FFF7BAF8E5
:10283000012000F08BFAC0460090002080B50748C8
:102840000068C00505D0EFF31080012181F31088E6
:1028500080BD00F041F9002080BDC04604ED00E0DD
:10286000B0B50C460546FFF7E9FF00212160696815
:10287000616000292A4600D00A4614606C6000F0AE
:10288000DBF8B0BD30B514004C4325001C004443B8
:102890006419050010002900FFF768FC0019040006
:1028A0000D002100280030BDE0B5FFF793FE72B6A1
:1028B00001A8FFF7A5FE034803490860FFF7AAFF38
:1028C0008CBDC0460000000008ED00E006484168ED
:1028D0000968002903D04068C068006801E0002052
:1028E000C0430249086270473C290020142A002096
:1028F00010B500F00DFA0446FDF700FD002803D0E6
:102900000120000702490860204600F00BFA10BDC4
:1029100004ED00E010B5026C002A0BD0C3689B18D0
:10292000C3608468A34201D30368C36008461946A4
:1029300000F0E6F910BDB0B51C46049D00292B46F9
:1029400000D013462B60E863296401212846FEF776
:10295000EDFA4C202C54B0BD0169436882689A603E
:10296000826853604B68834200D14A600022026152
:102970000868401E0860086870470000B0B504464B
:10298000044D0120A8622020FFF72AFC2C60024899
:10299000C461B0BD202102403C29002010B5064989
:1029A0000A680B680F242403A34300031018204077
:1029B0001818086010BDC0461C110040B0B50C4688
:1029C0000546002801D10448056800F085F86C65CB
:1029D00000F0EEF8B0BDC046842B002010B50446D0
:1029E000002801D10448046800F076F8646D00F016
:1029F000DFF8204610BDC046842B002010B50446E9
:102A00006120205C012804D0002805D1206BFFF74D
:102A1000ABFA2046FFF7A8FA10BD0000FF2807D048
:102A2000044A5268800013588B4201D0101801608C
:102A30007047C046642D000080B505490968C90586
:102A400002D080F3108880BD00F0B2F880BDC0468F
:102A500004ED00E080B5012904D84900034A535A27
:102A600003435352FFF7EEF880BDC04638280020DC
:102A700080B5002801D104480068806D002801D08D
:102A8000FFF772FA80BDC046842B002010B50C46BB
:102A9000044909681831FFF72DFD01212046FEF792
:102AA000CFFA10BD842B002080B504494868002867
:102AB00003D04978002900D0804780BD442B0020F6
:102AC00042684A6093688B609368596091600861BE
:102AD0000168491C0160704772B604480168491CCE
:102AE0000160BFF34F8FBFF36F8F7047882B0020BB
:102AF0000120000703490860BFF34F8FBFF36F8FBA
:102B00007047C04604ED00E070B514460D46064619
:102B1000FFF794FEB561F461FFF78EFF70BD70B5ED
:102B200014460D460646FFF789FE7560B460FFF750
:102B300083FF70BD10B50446FFF7CEFFA06B444283
:102B4000444100F035F8204610BD0000FF2803D0B6
:102B500001218140014801607047C0467430024045
:102B6000FF2803D001221140014A81547047C0461A
:102B70000031024010B50446FFF760FE00212160DD
:102B80006160FFF759FF10BD80B50349142200F0C2
:102B9000B7F8002080BDC046502D000002460968ED
:102BA0001620092903D8002901D0116000207047A0
:102BB00003480168491E016000D0704762B6704743
:102BC000882B002081B00020009072B60098002869
:102BD000FCD001B0704780B54621415C002900D08F
:102BE00080BDFFF7C1F980BD10B500239A4203D024
:102BF000CC5CC4545B1CF9E710BD80B50B460321C7
:102C00004258C11D184600F07BF880BDFF2802D055
:102C1000014901224254704700330240002804D089
:102C20000021CA4306C00121017070470248C068F4
:102C3000400700D430BF7047442B002080B50028E7
:102C400003D008380068FFF78FF980BD80B50248CF
:102C50000068FFF7C3FE80BD842B00200248006897
:102C60008546FFF721FE70470000000080B50A4648
:102C700003214158104600F02FF880BD0B46114645
:102C80001A4680B500F00FF880BD80B541698069B3
:102C90008847FEF7B3FE80BD012901D91620704791
:102CA00001610020704700239A4202D0C1545B1C8E
:102CB000FAE77047014A81507047C0460050024011
:102CC00001480168816070474C2000400148C0689D
:102CD0007047C046442B00200A46002180B5FFF70C
:102CE000E2FF80BD80B50022FEF7A4FA80BD80B56A
:102CF000FFF776FA80BD80B5FFF700FD80BD0000CC
:102D000080B5FFF771FF80BD80B5FEF757F980BD34
:102D1000EFF3108072B670470138FDD170478160C3
:102D20000020704780F3108870470120704772B60A
:102D3000FEE7204600E0000082B00094014C0194C0
:102D400010BD00BF151400000120704700BFFEE752
:102D5000010000000000000000040000000000006E
:102D600000000000802A0020082600207026002095
:102D7000FFFFFFFF00000000000000000000000057
:102D800000000000F903000000000000546D7220F4
:102D90005376630049444C4500000002020278006B
:0E2DA000400608008006080009000000001927
:102DB00000D500000F910411224F0902003F2500A9
:102DC000043B00200072000080003102FF0F0A2A3D
:102DD0008F5F4031AF1BAA0000FFF00025130000F9
:102DE000FB2B00006D2C00000200000040280000BA
:102DF000B02D000040280020E82D00000000002039
:020000044E02AA
:10000000F0FFFFFF03001702000000002E06F76755
:10001000FFFFFFFFFFFFFFFFAAAAAAAA0000000040
:10002000FFFFFFFFFFFFFFFF00000000FFFFFFFFDC
:1000300000000000000000F00000000000000000D0
:1000400000000000000000000000000000000000B0
:1000500000000000000000000000000000000000A0
:100060000000000000000000000000000000000090
:100070000000000000000000000000000000000080
:10074000000000000000000000000000B7DF14B748
:100750000000000000000000000000000000000099
:100760000000000000000000000000000000000089
:100770000000000000000000000000000000000079
:100780000000000000000000000000000000000069
:100790000000000000000000000000000000000059
:1007A0000000000000000000000000000000000049
:1007B0000000000000000000000000000000000039
:1007C0000000000000000000000000000000000029
:1007D0005AA500000101020305080D156DD7E43686
:1007E000EBF431DF95AE15EE03BA8EE4C4C63FD804
:1007F000453F675E74D7C2012C9058E5A2947252AF
:0400000300002C5D70
:00000001FF
